{
  "address": "0x1f158b5320BBf677FdA89F9a438df99BbE560A26",
  "abi": [
    {
      "anonymous": false,
      "inputs": [
        {
          "indexed": false,
          "internalType": "address",
          "name": "historyOwner",
          "type": "address"
        },
        {
          "indexed": false,
          "internalType": "contract History",
          "name": "history",
          "type": "address"
        }
      ],
      "name": "HistoryCreated",
      "type": "event"
    },
    {
      "inputs": [
        {
          "internalType": "address",
          "name": "_historyOwner",
          "type": "address"
        },
        {
          "internalType": "bytes32",
          "name": "_salt",
          "type": "bytes32"
        }
      ],
      "name": "calculateHistoryAddress",
      "outputs": [
        {
          "internalType": "address",
          "name": "",
          "type": "address"
        }
      ],
      "stateMutability": "view",
      "type": "function"
    },
    {
      "inputs": [
        {
          "internalType": "address",
          "name": "_historyOwner",
          "type": "address"
        },
        {
          "internalType": "bytes32",
          "name": "_salt",
          "type": "bytes32"
        }
      ],
      "name": "newHistory",
      "outputs": [
        {
          "internalType": "contract History",
          "name": "",
          "type": "address"
        }
      ],
      "stateMutability": "nonpayable",
      "type": "function"
    },
    {
      "inputs": [
        {
          "internalType": "address",
          "name": "_historyOwner",
          "type": "address"
        }
      ],
      "name": "newHistory",
      "outputs": [
        {
          "internalType": "contract History",
          "name": "",
          "type": "address"
        }
      ],
      "stateMutability": "nonpayable",
      "type": "function"
    }
  ],
  "transactionHash": "0xb2172b3d24e4434b34158b0aa60800137f434bf18ad73821aff7332b79db3cb3",
  "args": [],
  "numDeployments": 1,
  "solcInputHash": "b1bc2a879218740e83dfbb7046a3cc8c",
  "bytecode": "0x608060405234801561001057600080fd5b50610c6f806100206000396000f3fe608060405234801561001057600080fd5b50600436106100415760003560e01c80632ab8b1151461004657806350f9c5ba1461007557806388d49a6214610088575b600080fd5b610059610054366004610289565b61009b565b6040516001600160a01b03909116815260200160405180910390f35b610059610083366004610289565b61012a565b6100596100963660046102b3565b6101a5565b60008082846040516100ac90610260565b6001600160a01b0390911681526020018190604051809103906000f59050801580156100dc573d6000803e3d6000fd5b50604080516001600160a01b038088168252831660208201529192507f5b0ee1fb14fdb4a34ba9f0dda6790b059be11d8b3a954905dbad3c025c05c9c6910160405180910390a19392505050565b600061019e826040518060200161014090610260565b601f1982820381018352601f9091011660408181526001600160a01b03881660208301520160408051601f198184030181529082905261018392916020016102fe565b6040516020818303038152906040528051906020012061022e565b9392505050565b600080826040516101b590610260565b6001600160a01b039091168152602001604051809103906000f0801580156101e1573d6000803e3d6000fd5b50604080516001600160a01b038087168252831660208201529192507f5b0ee1fb14fdb4a34ba9f0dda6790b059be11d8b3a954905dbad3c025c05c9c6910160405180910390a192915050565b600061019e8383306000604051836040820152846020820152828152600b8101905060ff815360559020949350505050565b61091e8061031c83390190565b80356001600160a01b038116811461028457600080fd5b919050565b6000806040838503121561029c57600080fd5b6102a58361026d565b946020939093013593505050565b6000602082840312156102c557600080fd5b61019e8261026d565b6000815160005b818110156102ef57602081850181015186830152016102d5565b50600093019283525090919050565b600061031361030d83866102ce565b846102ce565b94935050505056fe608060405234801561001057600080fd5b5060405161091e38038061091e83398101604081905261002f91610181565b61003833610057565b6001600160a01b038116331461005157610051816100a7565b506101b1565b600080546001600160a01b038381166001600160a01b0319831681178455604051919092169283917f8be0079c531659141344cd1fd0a4f28419497f9722a3daafe3b4186f6b6457e09190a35050565b6100af610125565b6001600160a01b0381166101195760405162461bcd60e51b815260206004820152602660248201527f4f776e61626c653a206e6577206f776e657220697320746865207a65726f206160448201526564647265737360d01b60648201526084015b60405180910390fd5b61012281610057565b50565b6000546001600160a01b0316331461017f5760405162461bcd60e51b815260206004820181905260248201527f4f776e61626c653a2063616c6c6572206973206e6f7420746865206f776e65726044820152606401610110565b565b60006020828403121561019357600080fd5b81516001600160a01b03811681146101aa57600080fd5b9392505050565b61075e806101c06000396000f3fe608060405234801561001057600080fd5b50600436106100625760003560e01c8063715018a6146100675780638da5cb5b14610071578063d79a824014610091578063ddfdfbb0146100bf578063f2fde38b146100d2578063fc411683146100e5575b600080fd5b61006f6100f8565b005b6000546040516001600160a01b0390911681526020015b60405180910390f35b6100a461009f366004610531565b61010c565b60408051938452602084019290925290820152606001610088565b61006f6100cd366004610586565b6101bf565b61006f6100e03660046105c8565b61039a565b61006f6100f33660046105c8565b610418565b610100610429565b61010a6000610483565b565b600080808061011d858701876105ec565b6001600160a01b038816600090815260016020526040902054909150808210610159576040516387332c0160e01b815260040160405180910390fd5b506001600160a01b0396909616600090815260026020908152604080832098835297815290879020875160608101895281548082526001909201546001600160801b03808216948301859052600160801b90910416980188905297909695509350505050565b6101c7610429565b6000806101d683850185610621565b9150915080604001516001600160801b031681602001516001600160801b031611156102155760405163123974fd60e01b815260040160405180910390fd5b6001600160a01b038216600090815260016020526040902054801561028e576001600160a01b0383166000908152600260205260408120906102586001846106d5565b815260200190815260200160002060010160109054906101000a90046001600160801b0316600161028991906106ee565b610291565b60005b6001600160801b031682602001516001600160801b0316146102c65760405163118b891b60e01b815260040160405180910390fd5b6001600160a01b03831660009081526002602090815260408083208484528252918290208451815590840151918401516001600160801b03908116600160801b0292169190911760019182015561031e908290610715565b6001600160a01b03841660008181526001602090815260409182902093909355805185518152858401516001600160801b03908116948201949094528582015190931690830152907fb71880d7a0c514d48c0296b2721b0a4f9641a45117960f2ca86b5b7873c4ab2f9060600160405180910390a25050505050565b6103a2610429565b6001600160a01b03811661040c5760405162461bcd60e51b815260206004820152602660248201527f4f776e61626c653a206e6577206f776e657220697320746865207a65726f206160448201526564647265737360d01b60648201526084015b60405180910390fd5b61041581610483565b50565b610420610429565b6104158161039a565b6000546001600160a01b0316331461010a5760405162461bcd60e51b815260206004820181905260248201527f4f776e61626c653a2063616c6c6572206973206e6f7420746865206f776e65726044820152606401610403565b600080546001600160a01b038381166001600160a01b0319831681178455604051919092169283917f8be0079c531659141344cd1fd0a4f28419497f9722a3daafe3b4186f6b6457e09190a35050565b6001600160a01b038116811461041557600080fd5b60008083601f8401126104fa57600080fd5b50813567ffffffffffffffff81111561051257600080fd5b60208301915083602082850101111561052a57600080fd5b9250929050565b60008060006040848603121561054657600080fd5b8335610551816104d3565b9250602084013567ffffffffffffffff81111561056d57600080fd5b610579868287016104e8565b9497909650939450505050565b6000806020838503121561059957600080fd5b823567ffffffffffffffff8111156105b057600080fd5b6105bc858286016104e8565b90969095509350505050565b6000602082840312156105da57600080fd5b81356105e5816104d3565b9392505050565b6000602082840312156105fe57600080fd5b5035919050565b80356001600160801b038116811461061c57600080fd5b919050565b600080828403608081121561063557600080fd5b8335610640816104d3565b92506060601f198201121561065457600080fd5b506040516060810181811067ffffffffffffffff8211171561068657634e487b7160e01b600052604160045260246000fd5b80604052506020840135815261069e60408501610605565b60208201526106af60608501610605565b6040820152809150509250929050565b634e487b7160e01b600052601160045260246000fd5b818103818111156106e8576106e86106bf565b92915050565b6001600160801b0381811683821601908082111561070e5761070e6106bf565b5092915050565b808201808211156106e8576106e86106bf56fea2646970667358221220af04065c5d35d3460abc2711367000a2134970c84818233d66386f35794dfb5b64736f6c63430008130033a2646970667358221220022e94d4ec2e139486be793ccd0a8adc660dbcb526c820d52e52c49b3ca0a2c064736f6c63430008130033",
  "devdoc": {
    "events": {
      "HistoryCreated(address,address)": {
        "details": "MUST be triggered on a successful call to `newHistory`.",
        "params": {
          "history": "The history",
          "historyOwner": "The initial history owner"
        }
      }
    },
    "kind": "dev",
    "methods": {
      "calculateHistoryAddress(address,bytes32)": {
        "details": "Beware that only the `newHistory` function with the `_salt` parameter      is able to deterministically deploy a history.",
        "params": {
          "_historyOwner": "The initial history owner",
          "_salt": "The salt used to deterministically generate the history address"
        },
        "returns": {
          "_0": "The deterministic history address"
        }
      },
      "newHistory(address)": {
        "details": "On success, MUST emit a `HistoryCreated` event.",
        "params": {
          "_historyOwner": "The initial history owner"
        },
        "returns": {
          "_0": "The history"
        }
      },
      "newHistory(address,bytes32)": {
        "details": "On success, MUST emit a `HistoryCreated` event.",
        "params": {
          "_historyOwner": "The initial history owner",
          "_salt": "The salt used to deterministically generate the history address"
        },
        "returns": {
          "_0": "The history"
        }
      }
    },
    "title": "History Factory",
    "version": 1
  },
  "userdoc": {
    "events": {
      "HistoryCreated(address,address)": {
        "notice": "A new history was deployed."
      }
    },
    "kind": "user",
    "methods": {
      "calculateHistoryAddress(address,bytes32)": {
        "notice": "Calculate the address of a history to be deployed deterministically."
      },
      "newHistory(address)": {
        "notice": "Deploy a new history."
      },
      "newHistory(address,bytes32)": {
        "notice": "Deploy a new history deterministically."
      }
    },
    "notice": "Allows anyone to reliably deploy a new `History` contract.",
    "version": 1
  },
  "storageLayout": {
    "storage": [],
    "types": null
  }
}