{
  "address": "0x1d42AdDF87f08b3C6224BD4b41C30BCc9a931d7C",
  "abi": [
    {
      "anonymous": false,
      "inputs": [
        {
          "indexed": true,
          "internalType": "contract IConsensus",
          "name": "consensus",
          "type": "address"
        },
        {
          "indexed": false,
          "internalType": "contract IInputBox",
          "name": "inputBox",
          "type": "address"
        },
        {
          "indexed": false,
          "internalType": "contract IInputRelay[]",
          "name": "inputRelays",
          "type": "address[]"
        },
        {
          "indexed": false,
          "internalType": "address",
          "name": "appOwner",
          "type": "address"
        },
        {
          "indexed": false,
          "internalType": "bytes32",
          "name": "templateHash",
          "type": "bytes32"
        },
        {
          "indexed": false,
          "internalType": "contract Application",
          "name": "app",
          "type": "address"
        }
      ],
      "name": "ApplicationCreated",
      "type": "event"
    },
    {
      "inputs": [
        {
          "internalType": "contract IConsensus",
          "name": "_consensus",
          "type": "address"
        },
        {
          "internalType": "contract IInputBox",
          "name": "_inputBox",
          "type": "address"
        },
        {
          "internalType": "contract IInputRelay[]",
          "name": "_inputRelays",
          "type": "address[]"
        },
        {
          "internalType": "address",
          "name": "_appOwner",
          "type": "address"
        },
        {
          "internalType": "bytes32",
          "name": "_templateHash",
          "type": "bytes32"
        },
        {
          "internalType": "bytes32",
          "name": "_salt",
          "type": "bytes32"
        }
      ],
      "name": "calculateApplicationAddress",
      "outputs": [
        {
          "internalType": "address",
          "name": "",
          "type": "address"
        }
      ],
      "stateMutability": "view",
      "type": "function"
    },
    {
      "inputs": [
        {
          "internalType": "contract IConsensus",
          "name": "_consensus",
          "type": "address"
        },
        {
          "internalType": "contract IInputBox",
          "name": "_inputBox",
          "type": "address"
        },
        {
          "internalType": "contract IInputRelay[]",
          "name": "_inputRelays",
          "type": "address[]"
        },
        {
          "internalType": "address",
          "name": "_appOwner",
          "type": "address"
        },
        {
          "internalType": "bytes32",
          "name": "_templateHash",
          "type": "bytes32"
        },
        {
          "internalType": "bytes32",
          "name": "_salt",
          "type": "bytes32"
        }
      ],
      "name": "newApplication",
      "outputs": [
        {
          "internalType": "contract Application",
          "name": "",
          "type": "address"
        }
      ],
      "stateMutability": "nonpayable",
      "type": "function"
    },
    {
      "inputs": [
        {
          "internalType": "contract IConsensus",
          "name": "_consensus",
          "type": "address"
        },
        {
          "internalType": "contract IInputBox",
          "name": "_inputBox",
          "type": "address"
        },
        {
          "internalType": "contract IInputRelay[]",
          "name": "_inputRelays",
          "type": "address[]"
        },
        {
          "internalType": "address",
          "name": "_appOwner",
          "type": "address"
        },
        {
          "internalType": "bytes32",
          "name": "_templateHash",
          "type": "bytes32"
        }
      ],
      "name": "newApplication",
      "outputs": [
        {
          "internalType": "contract Application",
          "name": "",
          "type": "address"
        }
      ],
      "stateMutability": "nonpayable",
      "type": "function"
    }
  ],
  "transactionHash": "0x726616952a08e49cbfe24bd3fd40fec1e305ea5b31b98aaeb5180843e62b7cb3",
  "args": [],
  "numDeployments": 1,
  "solcInputHash": "ed73503a9e587d6de3f12590146837ca",
  "bytecode": "0x608060405234801561001057600080fd5b50611e61806100206000396000f3fe60806040523480156200001157600080fd5b5060043610620000465760003560e01c806303557d67146200004b5780635c44eda4146200007e578063f63adead1462000095575b600080fd5b620000626200005c366004620003aa565b620000ac565b6040516001600160a01b03909116815260200160405180910390f35b620000626200008f3660046200043b565b6200014d565b62000062620000a6366004620003aa565b620001e8565b600080828888888888604051620000c390620002b5565b620000d395949392919062000509565b8190604051809103906000f5905080158015620000f4573d6000803e3d6000fd5b509050876001600160a01b03167ff0a2d32dae19c50fb841822aba94a3a9ba00be0584f7d8229795d66d9532395288888888866040516200013a95949392919062000548565b60405180910390a2979650505050505050565b60008086868686866040516200016390620002b5565b6200017395949392919062000509565b604051809103906000f08015801562000190573d6000803e3d6000fd5b509050866001600160a01b03167ff0a2d32dae19c50fb841822aba94a3a9ba00be0584f7d8229795d66d953239528787878786604051620001d695949392919062000548565b60405180910390a29695505050505050565b60006200026a82604051806020016200020190620002b5565b601f1982820381018352601f9091011660408190526200022e908b908b908b908b908b9060200162000509565b60408051601f19818403018152908290526200024e9291602001620005bd565b6040516020818303038152906040528051906020012062000275565b979650505050505050565b6000620002848383306200028b565b9392505050565b6000604051836040820152846020820152828152600b8101905060ff815360559020949350505050565b61184d80620005df83390190565b6001600160a01b0381168114620002d957600080fd5b50565b634e487b7160e01b600052604160045260246000fd5b8035620002ff81620002c3565b919050565b600082601f8301126200031657600080fd5b8135602067ffffffffffffffff80831115620003365762000336620002dc565b8260051b604051601f19603f830116810181811084821117156200035e576200035e620002dc565b60405293845260208187018101949081019250878511156200037f57600080fd5b6020870191505b848210156200026a576200039a82620002f2565b8352918301919083019062000386565b60008060008060008060c08789031215620003c457600080fd5b8635620003d181620002c3565b95506020870135620003e381620002c3565b9450604087013567ffffffffffffffff8111156200040057600080fd5b6200040e89828a0162000304565b94505060608701356200042181620002c3565b9598949750929560808101359460a0909101359350915050565b600080600080600060a086880312156200045457600080fd5b85356200046181620002c3565b945060208601356200047381620002c3565b9350604086013567ffffffffffffffff8111156200049057600080fd5b6200049e8882890162000304565b9350506060860135620004b181620002c3565b949793965091946080013592915050565b60008151808452602080850194506020840160005b83811015620004fe5781516001600160a01b031687529582019590820190600101620004d7565b509495945050505050565b600060018060a01b038088168352808716602084015260a060408401526200053560a0840187620004c2565b9416606083015250608001529392505050565b600060018060a01b03808816835260a060208401526200056c60a0840188620004c2565b9581166040840152606083019490945250911660809091015292915050565b6000815160005b81811015620005ae576020818501810151868301520162000592565b50600093019283525090919050565b6000620005d6620005cf83866200058b565b846200058b565b94935050505056fe60c06040523480156200001157600080fd5b506040516200184d3803806200184d8339810160408190526200003491620001a5565b816001600160a01b0381166200006457604051631e4fbdf760e01b81526000600482015260240160405180910390fd5b6200006f8162000114565b50600180556080819052600380546001600160a01b0319166001600160a01b0387811691909117909155841660a05260005b835181101562000108576004848281518110620000c257620000c2620002c2565b60209081029190910181015182546001808201855560009485529290932090920180546001600160a01b0319166001600160a01b039093169290921790915501620000a1565b505050505050620002d8565b600080546001600160a01b038381166001600160a01b0319831681178455604051919092169283917f8be0079c531659141344cd1fd0a4f28419497f9722a3daafe3b4186f6b6457e09190a35050565b6001600160a01b03811681146200017a57600080fd5b50565b634e487b7160e01b600052604160045260246000fd5b8051620001a08162000164565b919050565b600080600080600060a08688031215620001be57600080fd5b8551620001cb8162000164565b80955050602080870151620001e08162000164565b60408801519095506001600160401b0380821115620001fe57600080fd5b818901915089601f8301126200021357600080fd5b8151818111156200022857620002286200017d565b8060051b604051601f19603f830116810181811085821117156200025057620002506200017d565b60405291825284820192508381018501918c8311156200026f57600080fd5b938501935b828510156200029857620002888562000193565b8452938501939285019262000274565b809850505050505050620002af6060870162000193565b9150608086015190509295509295909350565b634e487b7160e01b600052603260045260246000fd5b60805160a05161154f620002fe600039600061011101526000610214015261154f6000f3fe6080604052600436106100f65760003560e01c80639d9b11451161008a578063e2931e3911610059578063e2931e39146102fe578063f23a6e611461031e578063f2fde38b1461034a578063fc4116831461036a57600080fd5b80639d9b114514610270578063a9074af114610290578063bc197c81146102b0578063c01ff31a146102dc57600080fd5b8063522f6815116100c6578063522f6815146101e057806361b12c6614610202578063715018a61461023d5780638da5cb5b1461025257600080fd5b8062aace9a1461010257806301ffc9a71461014e578063150b7a021461017e578063179e740b146101c257600080fd5b366100fd57005b600080fd5b34801561010e57600080fd5b507f00000000000000000000000000000000000000000000000000000000000000005b6040516001600160a01b0390911681526020015b60405180910390f35b34801561015a57600080fd5b5061016e610169366004610dd6565b61038a565b6040519015158152602001610145565b34801561018a57600080fd5b506101a9610199366004610eca565b630a85bd0160e11b949350505050565b6040516001600160e01b03199091168152602001610145565b3480156101ce57600080fd5b506003546001600160a01b0316610131565b3480156101ec57600080fd5b506102006101fb366004610f35565b6103d0565b005b34801561020e57600080fd5b506040517f00000000000000000000000000000000000000000000000000000000000000008152602001610145565b34801561024957600080fd5b50610200610469565b34801561025e57600080fd5b506000546001600160a01b0316610131565b34801561027c57600080fd5b5061016e61028b366004610f61565b61047d565b34801561029c57600080fd5b506102006102ab366004610fe3565b6104ad565b3480156102bc57600080fd5b506101a96102cb3660046110d1565b63bc197c8160e01b95945050505050565b3480156102e857600080fd5b506102f161064c565b604051610145919061117e565b34801561030a57600080fd5b506102006103193660046111cb565b6106ae565b34801561032a57600080fd5b506101a9610339366004611233565b63f23a6e6160e01b95945050505050565b34801561035657600080fd5b5061020061036536600461129b565b61071b565b34801561037657600080fd5b5061020061038536600461129b565b610759565b60006001600160e01b03198216639cd436e360e01b14806103bb57506001600160e01b03198216630a85bd0160e11b145b806103ca57506103ca826107b5565b92915050565b3330146103f0576040516377c1cb9760e11b815260040160405180910390fd5b6000826001600160a01b03168260405160006040518083038185875af1925050503d806000811461043d576040519150601f19603f3d011682016040523d82523d6000602084013e610442565b606091505b505090508061046457604051630ce8f45160e31b815260040160405180910390fd5b505050565b6104716107ea565b61047b6000610817565b565b6000818152600260209081526040808320600886901c8452909152812054600160ff85161b1615155b9392505050565b6104b5610867565b60006104c082610891565b90506104cf60208301826108c2565b6104fc5780826020016040516369b67d4560e01b81526004016104f39291906112b8565b60405180910390fd5b600061050a836020016108dc565b90506105268686868461051d88806112d6565b93929190610950565b600061053284806112d6565b6105439060408101906020016112f6565b6001600160401b03166000818152600260209081526040808320600888901c8452918290529091205491925090600160ff86161b1615610596576040516370de22b760e01b815260040160405180910390fd5b6105e087878080601f016020809104026020016040519081016040528093929190818152602001838380828437600092019190915250506001600160a01b038c1692915050610985565b50600884901c60009081526020829052604090208054600160ff87161b17905560408051858152602081018490527fd1d262d5155c48b95c6da18eee621c3c67e223cee01c3db82b04f96110b4e657910160405180910390a15050505061064660018055565b50505050565b606060048054806020026020016040519081016040528092919081815260200182805480156106a457602002820191906000526020600020905b81546001600160a01b03168152600190910190602001808311610686575b5050505050905090565b60006106b982610891565b90506106c860208301826108c2565b6106ec5780826020016040516369b67d4560e01b81526004016104f39291906112b8565b60006106fa836020016108dc565b905061071485858361070c87806112d6565b929190610993565b5050505050565b6107236107ea565b6001600160a01b03811661074d57604051631e4fbdf760e01b8152600060048201526024016104f3565b61075681610817565b50565b6107616107ea565b600380546001600160a01b0319166001600160a01b0383169081179091556040519081527f4991c6f37185659e276ff918a96f3e20e6c5abcd8c9aab450dc19c2f7ad35cb59060200160405180910390a150565b60006001600160e01b03198216630271189760e51b14806103ca57506301ffc9a760e01b6001600160e01b03198316146103ca565b6000546001600160a01b0316331461047b5760405163118cdaa760e01b81523360048201526024016104f3565b600080546001600160a01b038381166001600160a01b0319831681178455604051919092169283917f8be0079c531659141344cd1fd0a4f28419497f9722a3daafe3b4186f6b6457e09190a35050565b60026001540361088a57604051633ee5aeb560e01b815260040160405180910390fd5b6002600155565b600061089d82806112d6565b6108ab9060208101906112f6565b6103ca906001600160401b0316602084013561131f565b6000823582108015906104a6575050602090910135101590565b600354604051633942924360e01b81526000916001600160a01b03169063394292439061090f9030908690600401611340565b602060405180830381865afa15801561092c573d6000803e3d6000fd5b505050506040513d601f19601f820116820180604052508101906103ca9190611367565b600061095d8585856109b3565b905061097d868284606083013560255b6001600160401b031660156109e2565b505050505050565b60606104a683836000610c88565b600061099f8484610d25565b90506107148582846080830135602561096d565b60608383836040516020016109ca939291906113a9565b60405160208183030381529060405290509392505050565b6040805160608089013560208301526080808a01359383019390935260a0890135908201528591016040516020818303038152906040528051906020012014610a3e57604051636fbd3b7160e11b815260040160405180910390fd5b827333436035441927Df1a73FE3AAC5906854632e53d6379de4601610a7a610a6960208b018b6112f6565b60051b681fffffffffffffffe01690565b60058660408c0135610a8f60e08e018e6113d7565b6040518763ffffffff1660e01b8152600401610ab096959493929190611420565b602060405180830381865af4158015610acd573d6000803e3d6000fd5b505050506040513d601f19601f82011682018060405250810190610af19190611367565b14610b0f57604051634371daa160e11b815260040160405180910390fd5b60007333436035441927Df1a73FE3AAC5906854632e53d63c84583a18780519060200120604051602001610b4591815260200190565b60408051601f19818403018152908290526001600160e01b031960e084901b168252610b76916005906004016114a7565b602060405180830381865af4158015610b93573d6000803e3d6000fd5b505050506040513d601f19601f82011682018060405250810190610bb79190611367565b905086604001357333436035441927Df1a73FE3AAC5906854632e53d6379de4601610bee8a6020016020810190610a6991906112f6565b60058686610bff60c08f018f6113d7565b6040518763ffffffff1660e01b8152600401610c2096959493929190611420565b602060405180830381865af4158015610c3d573d6000803e3d6000fd5b505050506040513d601f19601f82011682018060405250810190610c619190611367565b14610c7f5760405163017c689560e61b815260040160405180910390fd5b50505050505050565b606081471015610cad5760405163cd78605960e01b81523060048201526024016104f3565b600080856001600160a01b03168486604051610cc991906114eb565b60006040518083038185875af1925050503d8060008114610d06576040519150601f19603f3d011682016040523d82523d6000602084013e610d0b565b606091505b5091509150610d1b868383610d51565b9695505050505050565b60608282604051602001610d3a9291906114fd565b604051602081830303815290604052905092915050565b606082610d6657610d6182610dad565b6104a6565b8151158015610d7d57506001600160a01b0384163b155b15610da657604051639996b31560e01b81526001600160a01b03851660048201526024016104f3565b50806104a6565b805115610dbd5780518082602001fd5b604051630a12f52160e11b815260040160405180910390fd5b600060208284031215610de857600080fd5b81356001600160e01b0319811681146104a657600080fd5b6001600160a01b038116811461075657600080fd5b634e487b7160e01b600052604160045260246000fd5b604051601f8201601f191681016001600160401b0381118282101715610e5357610e53610e15565b604052919050565b600082601f830112610e6c57600080fd5b81356001600160401b03811115610e8557610e85610e15565b610e98601f8201601f1916602001610e2b565b818152846020838601011115610ead57600080fd5b816020850160208301376000918101602001919091529392505050565b60008060008060808587031215610ee057600080fd5b8435610eeb81610e00565b93506020850135610efb81610e00565b92506040850135915060608501356001600160401b03811115610f1d57600080fd5b610f2987828801610e5b565b91505092959194509250565b60008060408385031215610f4857600080fd5b8235610f5381610e00565b946020939093013593505050565b60008060408385031215610f7457600080fd5b50508035926020909101359150565b60008083601f840112610f9557600080fd5b5081356001600160401b03811115610fac57600080fd5b602083019150836020828501011115610fc457600080fd5b9250929050565b600060608284031215610fdd57600080fd5b50919050565b60008060008060608587031215610ff957600080fd5b843561100481610e00565b935060208501356001600160401b038082111561102057600080fd5b61102c88838901610f83565b9095509350604087013591508082111561104557600080fd5b50610f2987828801610fcb565b600082601f83011261106357600080fd5b813560206001600160401b0382111561107e5761107e610e15565b8160051b61108d828201610e2b565b92835284810182019282810190878511156110a757600080fd5b83870192505b848310156110c6578235825291830191908301906110ad565b979650505050505050565b600080600080600060a086880312156110e957600080fd5b85356110f481610e00565b9450602086013561110481610e00565b935060408601356001600160401b038082111561112057600080fd5b61112c89838a01611052565b9450606088013591508082111561114257600080fd5b61114e89838a01611052565b9350608088013591508082111561116457600080fd5b5061117188828901610e5b565b9150509295509295909350565b6020808252825182820181905260009190848201906040850190845b818110156111bf5783516001600160a01b03168352928401929184019160010161119a565b50909695505050505050565b6000806000604084860312156111e057600080fd5b83356001600160401b03808211156111f757600080fd5b61120387838801610f83565b9095509350602086013591508082111561121c57600080fd5b5061122986828701610fcb565b9150509250925092565b600080600080600060a0868803121561124b57600080fd5b853561125681610e00565b9450602086013561126681610e00565b9350604086013592506060860135915060808601356001600160401b0381111561128f57600080fd5b61117188828901610e5b565b6000602082840312156112ad57600080fd5b81356104a681610e00565b828152606081016104a6602083018480358252602090810135910152565b6000823560fe198336030181126112ec57600080fd5b9190910192915050565b60006020828403121561130857600080fd5b81356001600160401b03811681146104a657600080fd5b808201808211156103ca57634e487b7160e01b600052601160045260246000fd5b6001600160a01b0383168152606081016104a6602083018480358252602090810135910152565b60006020828403121561137957600080fd5b5051919050565b81835281816020850137506000828201602090810191909152601f909101601f19169091010190565b6001600160a01b03841681526040602082018190526000906113ce9083018486611380565b95945050505050565b6000808335601e198436030181126113ee57600080fd5b8301803591506001600160401b0382111561140857600080fd5b6020019150600581901b3603821315610fc457600080fd5b6001600160401b03878116825286166020820152604081018590526060810184905260a060808201819052810182905260006001600160fb1b0383111561146657600080fd5b8260051b808560c08501379190910160c001979650505050505050565b60005b8381101561149e578181015183820152602001611486565b50506000910152565b60408152600083518060408401526114c6816060850160208801611483565b6001600160401b0393909316602083015250601f91909101601f191601606001919050565b600082516112ec818460208701611483565b602081526000611511602083018486611380565b94935050505056fea26469706673582212207ed46b7f141142ddd60aaf582ba51961f96984a2ec68dc4d12c462bc20a32f9164736f6c63430008170033a2646970667358221220a9a29855c8c2a69b12eea5b4a77a92ab918dbe7e19eb0eccda38704c574a1e8664736f6c63430008170033",
  "deployedBytecode": "0x60806040523480156200001157600080fd5b5060043610620000465760003560e01c806303557d67146200004b5780635c44eda4146200007e578063f63adead1462000095575b600080fd5b620000626200005c366004620003aa565b620000ac565b6040516001600160a01b03909116815260200160405180910390f35b620000626200008f3660046200043b565b6200014d565b62000062620000a6366004620003aa565b620001e8565b600080828888888888604051620000c390620002b5565b620000d395949392919062000509565b8190604051809103906000f5905080158015620000f4573d6000803e3d6000fd5b509050876001600160a01b03167ff0a2d32dae19c50fb841822aba94a3a9ba00be0584f7d8229795d66d9532395288888888866040516200013a95949392919062000548565b60405180910390a2979650505050505050565b60008086868686866040516200016390620002b5565b6200017395949392919062000509565b604051809103906000f08015801562000190573d6000803e3d6000fd5b509050866001600160a01b03167ff0a2d32dae19c50fb841822aba94a3a9ba00be0584f7d8229795d66d953239528787878786604051620001d695949392919062000548565b60405180910390a29695505050505050565b60006200026a82604051806020016200020190620002b5565b601f1982820381018352601f9091011660408190526200022e908b908b908b908b908b9060200162000509565b60408051601f19818403018152908290526200024e9291602001620005bd565b6040516020818303038152906040528051906020012062000275565b979650505050505050565b6000620002848383306200028b565b9392505050565b6000604051836040820152846020820152828152600b8101905060ff815360559020949350505050565b61184d80620005df83390190565b6001600160a01b0381168114620002d957600080fd5b50565b634e487b7160e01b600052604160045260246000fd5b8035620002ff81620002c3565b919050565b600082601f8301126200031657600080fd5b8135602067ffffffffffffffff80831115620003365762000336620002dc565b8260051b604051601f19603f830116810181811084821117156200035e576200035e620002dc565b60405293845260208187018101949081019250878511156200037f57600080fd5b6020870191505b848210156200026a576200039a82620002f2565b8352918301919083019062000386565b60008060008060008060c08789031215620003c457600080fd5b8635620003d181620002c3565b95506020870135620003e381620002c3565b9450604087013567ffffffffffffffff8111156200040057600080fd5b6200040e89828a0162000304565b94505060608701356200042181620002c3565b9598949750929560808101359460a0909101359350915050565b600080600080600060a086880312156200045457600080fd5b85356200046181620002c3565b945060208601356200047381620002c3565b9350604086013567ffffffffffffffff8111156200049057600080fd5b6200049e8882890162000304565b9350506060860135620004b181620002c3565b949793965091946080013592915050565b60008151808452602080850194506020840160005b83811015620004fe5781516001600160a01b031687529582019590820190600101620004d7565b509495945050505050565b600060018060a01b038088168352808716602084015260a060408401526200053560a0840187620004c2565b9416606083015250608001529392505050565b600060018060a01b03808816835260a060208401526200056c60a0840188620004c2565b9581166040840152606083019490945250911660809091015292915050565b6000815160005b81811015620005ae576020818501810151868301520162000592565b50600093019283525090919050565b6000620005d6620005cf83866200058b565b846200058b565b94935050505056fe60c06040523480156200001157600080fd5b506040516200184d3803806200184d8339810160408190526200003491620001a5565b816001600160a01b0381166200006457604051631e4fbdf760e01b81526000600482015260240160405180910390fd5b6200006f8162000114565b50600180556080819052600380546001600160a01b0319166001600160a01b0387811691909117909155841660a05260005b835181101562000108576004848281518110620000c257620000c2620002c2565b60209081029190910181015182546001808201855560009485529290932090920180546001600160a01b0319166001600160a01b039093169290921790915501620000a1565b505050505050620002d8565b600080546001600160a01b038381166001600160a01b0319831681178455604051919092169283917f8be0079c531659141344cd1fd0a4f28419497f9722a3daafe3b4186f6b6457e09190a35050565b6001600160a01b03811681146200017a57600080fd5b50565b634e487b7160e01b600052604160045260246000fd5b8051620001a08162000164565b919050565b600080600080600060a08688031215620001be57600080fd5b8551620001cb8162000164565b80955050602080870151620001e08162000164565b60408801519095506001600160401b0380821115620001fe57600080fd5b818901915089601f8301126200021357600080fd5b8151818111156200022857620002286200017d565b8060051b604051601f19603f830116810181811085821117156200025057620002506200017d565b60405291825284820192508381018501918c8311156200026f57600080fd5b938501935b828510156200029857620002888562000193565b8452938501939285019262000274565b809850505050505050620002af6060870162000193565b9150608086015190509295509295909350565b634e487b7160e01b600052603260045260246000fd5b60805160a05161154f620002fe600039600061011101526000610214015261154f6000f3fe6080604052600436106100f65760003560e01c80639d9b11451161008a578063e2931e3911610059578063e2931e39146102fe578063f23a6e611461031e578063f2fde38b1461034a578063fc4116831461036a57600080fd5b80639d9b114514610270578063a9074af114610290578063bc197c81146102b0578063c01ff31a146102dc57600080fd5b8063522f6815116100c6578063522f6815146101e057806361b12c6614610202578063715018a61461023d5780638da5cb5b1461025257600080fd5b8062aace9a1461010257806301ffc9a71461014e578063150b7a021461017e578063179e740b146101c257600080fd5b366100fd57005b600080fd5b34801561010e57600080fd5b507f00000000000000000000000000000000000000000000000000000000000000005b6040516001600160a01b0390911681526020015b60405180910390f35b34801561015a57600080fd5b5061016e610169366004610dd6565b61038a565b6040519015158152602001610145565b34801561018a57600080fd5b506101a9610199366004610eca565b630a85bd0160e11b949350505050565b6040516001600160e01b03199091168152602001610145565b3480156101ce57600080fd5b506003546001600160a01b0316610131565b3480156101ec57600080fd5b506102006101fb366004610f35565b6103d0565b005b34801561020e57600080fd5b506040517f00000000000000000000000000000000000000000000000000000000000000008152602001610145565b34801561024957600080fd5b50610200610469565b34801561025e57600080fd5b506000546001600160a01b0316610131565b34801561027c57600080fd5b5061016e61028b366004610f61565b61047d565b34801561029c57600080fd5b506102006102ab366004610fe3565b6104ad565b3480156102bc57600080fd5b506101a96102cb3660046110d1565b63bc197c8160e01b95945050505050565b3480156102e857600080fd5b506102f161064c565b604051610145919061117e565b34801561030a57600080fd5b506102006103193660046111cb565b6106ae565b34801561032a57600080fd5b506101a9610339366004611233565b63f23a6e6160e01b95945050505050565b34801561035657600080fd5b5061020061036536600461129b565b61071b565b34801561037657600080fd5b5061020061038536600461129b565b610759565b60006001600160e01b03198216639cd436e360e01b14806103bb57506001600160e01b03198216630a85bd0160e11b145b806103ca57506103ca826107b5565b92915050565b3330146103f0576040516377c1cb9760e11b815260040160405180910390fd5b6000826001600160a01b03168260405160006040518083038185875af1925050503d806000811461043d576040519150601f19603f3d011682016040523d82523d6000602084013e610442565b606091505b505090508061046457604051630ce8f45160e31b815260040160405180910390fd5b505050565b6104716107ea565b61047b6000610817565b565b6000818152600260209081526040808320600886901c8452909152812054600160ff85161b1615155b9392505050565b6104b5610867565b60006104c082610891565b90506104cf60208301826108c2565b6104fc5780826020016040516369b67d4560e01b81526004016104f39291906112b8565b60405180910390fd5b600061050a836020016108dc565b90506105268686868461051d88806112d6565b93929190610950565b600061053284806112d6565b6105439060408101906020016112f6565b6001600160401b03166000818152600260209081526040808320600888901c8452918290529091205491925090600160ff86161b1615610596576040516370de22b760e01b815260040160405180910390fd5b6105e087878080601f016020809104026020016040519081016040528093929190818152602001838380828437600092019190915250506001600160a01b038c1692915050610985565b50600884901c60009081526020829052604090208054600160ff87161b17905560408051858152602081018490527fd1d262d5155c48b95c6da18eee621c3c67e223cee01c3db82b04f96110b4e657910160405180910390a15050505061064660018055565b50505050565b606060048054806020026020016040519081016040528092919081815260200182805480156106a457602002820191906000526020600020905b81546001600160a01b03168152600190910190602001808311610686575b5050505050905090565b60006106b982610891565b90506106c860208301826108c2565b6106ec5780826020016040516369b67d4560e01b81526004016104f39291906112b8565b60006106fa836020016108dc565b905061071485858361070c87806112d6565b929190610993565b5050505050565b6107236107ea565b6001600160a01b03811661074d57604051631e4fbdf760e01b8152600060048201526024016104f3565b61075681610817565b50565b6107616107ea565b600380546001600160a01b0319166001600160a01b0383169081179091556040519081527f4991c6f37185659e276ff918a96f3e20e6c5abcd8c9aab450dc19c2f7ad35cb59060200160405180910390a150565b60006001600160e01b03198216630271189760e51b14806103ca57506301ffc9a760e01b6001600160e01b03198316146103ca565b6000546001600160a01b0316331461047b5760405163118cdaa760e01b81523360048201526024016104f3565b600080546001600160a01b038381166001600160a01b0319831681178455604051919092169283917f8be0079c531659141344cd1fd0a4f28419497f9722a3daafe3b4186f6b6457e09190a35050565b60026001540361088a57604051633ee5aeb560e01b815260040160405180910390fd5b6002600155565b600061089d82806112d6565b6108ab9060208101906112f6565b6103ca906001600160401b0316602084013561131f565b6000823582108015906104a6575050602090910135101590565b600354604051633942924360e01b81526000916001600160a01b03169063394292439061090f9030908690600401611340565b602060405180830381865afa15801561092c573d6000803e3d6000fd5b505050506040513d601f19601f820116820180604052508101906103ca9190611367565b600061095d8585856109b3565b905061097d868284606083013560255b6001600160401b031660156109e2565b505050505050565b60606104a683836000610c88565b600061099f8484610d25565b90506107148582846080830135602561096d565b60608383836040516020016109ca939291906113a9565b60405160208183030381529060405290509392505050565b6040805160608089013560208301526080808a01359383019390935260a0890135908201528591016040516020818303038152906040528051906020012014610a3e57604051636fbd3b7160e11b815260040160405180910390fd5b8273__$2a7ef22e717e9afc55afc95d018bf1a85b$__6379de4601610a7a610a6960208b018b6112f6565b60051b681fffffffffffffffe01690565b60058660408c0135610a8f60e08e018e6113d7565b6040518763ffffffff1660e01b8152600401610ab096959493929190611420565b602060405180830381865af4158015610acd573d6000803e3d6000fd5b505050506040513d601f19601f82011682018060405250810190610af19190611367565b14610b0f57604051634371daa160e11b815260040160405180910390fd5b600073__$2a7ef22e717e9afc55afc95d018bf1a85b$__63c84583a18780519060200120604051602001610b4591815260200190565b60408051601f19818403018152908290526001600160e01b031960e084901b168252610b76916005906004016114a7565b602060405180830381865af4158015610b93573d6000803e3d6000fd5b505050506040513d601f19601f82011682018060405250810190610bb79190611367565b9050866040013573__$2a7ef22e717e9afc55afc95d018bf1a85b$__6379de4601610bee8a6020016020810190610a6991906112f6565b60058686610bff60c08f018f6113d7565b6040518763ffffffff1660e01b8152600401610c2096959493929190611420565b602060405180830381865af4158015610c3d573d6000803e3d6000fd5b505050506040513d601f19601f82011682018060405250810190610c619190611367565b14610c7f5760405163017c689560e61b815260040160405180910390fd5b50505050505050565b606081471015610cad5760405163cd78605960e01b81523060048201526024016104f3565b600080856001600160a01b03168486604051610cc991906114eb565b60006040518083038185875af1925050503d8060008114610d06576040519150601f19603f3d011682016040523d82523d6000602084013e610d0b565b606091505b5091509150610d1b868383610d51565b9695505050505050565b60608282604051602001610d3a9291906114fd565b604051602081830303815290604052905092915050565b606082610d6657610d6182610dad565b6104a6565b8151158015610d7d57506001600160a01b0384163b155b15610da657604051639996b31560e01b81526001600160a01b03851660048201526024016104f3565b50806104a6565b805115610dbd5780518082602001fd5b604051630a12f52160e11b815260040160405180910390fd5b600060208284031215610de857600080fd5b81356001600160e01b0319811681146104a657600080fd5b6001600160a01b038116811461075657600080fd5b634e487b7160e01b600052604160045260246000fd5b604051601f8201601f191681016001600160401b0381118282101715610e5357610e53610e15565b604052919050565b600082601f830112610e6c57600080fd5b81356001600160401b03811115610e8557610e85610e15565b610e98601f8201601f1916602001610e2b565b818152846020838601011115610ead57600080fd5b816020850160208301376000918101602001919091529392505050565b60008060008060808587031215610ee057600080fd5b8435610eeb81610e00565b93506020850135610efb81610e00565b92506040850135915060608501356001600160401b03811115610f1d57600080fd5b610f2987828801610e5b565b91505092959194509250565b60008060408385031215610f4857600080fd5b8235610f5381610e00565b946020939093013593505050565b60008060408385031215610f7457600080fd5b50508035926020909101359150565b60008083601f840112610f9557600080fd5b5081356001600160401b03811115610fac57600080fd5b602083019150836020828501011115610fc457600080fd5b9250929050565b600060608284031215610fdd57600080fd5b50919050565b60008060008060608587031215610ff957600080fd5b843561100481610e00565b935060208501356001600160401b038082111561102057600080fd5b61102c88838901610f83565b9095509350604087013591508082111561104557600080fd5b50610f2987828801610fcb565b600082601f83011261106357600080fd5b813560206001600160401b0382111561107e5761107e610e15565b8160051b61108d828201610e2b565b92835284810182019282810190878511156110a757600080fd5b83870192505b848310156110c6578235825291830191908301906110ad565b979650505050505050565b600080600080600060a086880312156110e957600080fd5b85356110f481610e00565b9450602086013561110481610e00565b935060408601356001600160401b038082111561112057600080fd5b61112c89838a01611052565b9450606088013591508082111561114257600080fd5b61114e89838a01611052565b9350608088013591508082111561116457600080fd5b5061117188828901610e5b565b9150509295509295909350565b6020808252825182820181905260009190848201906040850190845b818110156111bf5783516001600160a01b03168352928401929184019160010161119a565b50909695505050505050565b6000806000604084860312156111e057600080fd5b83356001600160401b03808211156111f757600080fd5b61120387838801610f83565b9095509350602086013591508082111561121c57600080fd5b5061122986828701610fcb565b9150509250925092565b600080600080600060a0868803121561124b57600080fd5b853561125681610e00565b9450602086013561126681610e00565b9350604086013592506060860135915060808601356001600160401b0381111561128f57600080fd5b61117188828901610e5b565b6000602082840312156112ad57600080fd5b81356104a681610e00565b828152606081016104a6602083018480358252602090810135910152565b6000823560fe198336030181126112ec57600080fd5b9190910192915050565b60006020828403121561130857600080fd5b81356001600160401b03811681146104a657600080fd5b808201808211156103ca57634e487b7160e01b600052601160045260246000fd5b6001600160a01b0383168152606081016104a6602083018480358252602090810135910152565b60006020828403121561137957600080fd5b5051919050565b81835281816020850137506000828201602090810191909152601f909101601f19169091010190565b6001600160a01b03841681526040602082018190526000906113ce9083018486611380565b95945050505050565b6000808335601e198436030181126113ee57600080fd5b8301803591506001600160401b0382111561140857600080fd5b6020019150600581901b3603821315610fc457600080fd5b6001600160401b03878116825286166020820152604081018590526060810184905260a060808201819052810182905260006001600160fb1b0383111561146657600080fd5b8260051b808560c08501379190910160c001979650505050505050565b60005b8381101561149e578181015183820152602001611486565b50506000910152565b60408152600083518060408401526114c6816060850160208801611483565b6001600160401b0393909316602083015250601f91909101601f191601606001919050565b600082516112ec818460208701611483565b602081526000611511602083018486611380565b94935050505056fea26469706673582212207ed46b7f141142ddd60aaf582ba51961f96984a2ec68dc4d12c462bc20a32f9164736f6c63430008170033a2646970667358221220a9a29855c8c2a69b12eea5b4a77a92ab918dbe7e19eb0eccda38704c574a1e8664736f6c63430008170033",
  "libraries": {
    "MerkleV2": "0x33436035441927Df1a73FE3AAC5906854632e53d"
  },
  "devdoc": {
    "events": {
      "ApplicationCreated(address,address,address[],address,bytes32,address)": {
        "details": "MUST be triggered on a successful call to `newApplication`.",
        "params": {
          "app": "The application",
          "appOwner": "The initial application owner",
          "consensus": "The initial consensus contract",
          "inputBox": "The input box contract",
          "inputRelays": "The input relays",
          "templateHash": "The initial machine state hash"
        }
      }
    },
    "kind": "dev",
    "methods": {
      "calculateApplicationAddress(address,address,address[],address,bytes32,bytes32)": {
        "details": "Beware that only the `newApplication` function with the `_salt` parameter      is able to deterministically deploy an application.",
        "params": {
          "_appOwner": "The initial application owner",
          "_consensus": "The initial consensus contract",
          "_inputBox": "The input box contract",
          "_inputRelays": "The input relays",
          "_salt": "The salt used to deterministically generate the application address",
          "_templateHash": "The initial machine state hash"
        },
        "returns": {
          "_0": "The deterministic application address"
        }
      },
      "newApplication(address,address,address[],address,bytes32)": {
        "details": "On success, MUST emit an `ApplicationCreated` event.",
        "params": {
          "_appOwner": "The initial application owner",
          "_consensus": "The initial consensus contract",
          "_inputBox": "The input box contract",
          "_inputRelays": "The input relays",
          "_templateHash": "The initial machine state hash"
        },
        "returns": {
          "_0": "The application"
        }
      },
      "newApplication(address,address,address[],address,bytes32,bytes32)": {
        "details": "On success, MUST emit an `ApplicationCreated` event.",
        "params": {
          "_appOwner": "The initial application owner",
          "_consensus": "The initial consensus contract",
          "_inputBox": "The input box contract",
          "_inputRelays": "The input relays",
          "_salt": "The salt used to deterministically generate the application address",
          "_templateHash": "The initial machine state hash"
        },
        "returns": {
          "_0": "The application"
        }
      }
    },
    "title": "Application Factory",
    "version": 1
  },
  "userdoc": {
    "events": {
      "ApplicationCreated(address,address,address[],address,bytes32,address)": {
        "notice": "A new application was deployed."
      }
    },
    "kind": "user",
    "methods": {
      "calculateApplicationAddress(address,address,address[],address,bytes32,bytes32)": {
        "notice": "Calculate the address of an application to be deployed deterministically."
      },
      "newApplication(address,address,address[],address,bytes32)": {
        "notice": "Deploy a new application."
      },
      "newApplication(address,address,address[],address,bytes32,bytes32)": {
        "notice": "Deploy a new application deterministically."
      }
    },
    "notice": "Allows anyone to reliably deploy a new `Application` contract.",
    "version": 1
  },
  "storageLayout": {
    "storage": [],
    "types": null
  }
}