{
  "address": "0x057cBDaaC05B00B7bCB46e5E85b7ad7E4f65c58d",
  "abi": [
    {
      "inputs": [
        {
          "internalType": "contract IInputBox",
          "name": "_inputBox",
          "type": "address"
        }
      ],
      "stateMutability": "nonpayable",
      "type": "constructor"
    },
    {
      "inputs": [],
      "name": "getInputBox",
      "outputs": [
        {
          "internalType": "contract IInputBox",
          "name": "",
          "type": "address"
        }
      ],
      "stateMutability": "view",
      "type": "function"
    },
    {
      "inputs": [
        {
          "internalType": "address",
          "name": "_app",
          "type": "address"
        }
      ],
      "name": "relayApplicationAddress",
      "outputs": [],
      "stateMutability": "nonpayable",
      "type": "function"
    },
    {
      "inputs": [
        {
          "internalType": "bytes4",
          "name": "interfaceId",
          "type": "bytes4"
        }
      ],
      "name": "supportsInterface",
      "outputs": [
        {
          "internalType": "bool",
          "name": "",
          "type": "bool"
        }
      ],
      "stateMutability": "view",
      "type": "function"
    }
  ],
  "transactionHash": "0xce064e62354114f9c860d893847d3a641b5bf8bac6163c4b01b8096997c9f932",
  "args": [
    "0xB572d5C134C0071ceF9B845E8CbDa56Bb39110bE"
  ],
  "numDeployments": 1,
  "solcInputHash": "ed73503a9e587d6de3f12590146837ca",
  "bytecode": "0x60a060405234801561001057600080fd5b5060405161037438038061037483398101604081905261002f91610040565b6001600160a01b0316608052610070565b60006020828403121561005257600080fd5b81516001600160a01b038116811461006957600080fd5b9392505050565b6080516102e3610091600039600081816052015261012001526102e36000f3fe608060405234801561001057600080fd5b50600436106100405760003560e01c8062aace9a1461004557806301ffc9a71461008157806371402244146100a4575b600080fd5b6040516001600160a01b037f00000000000000000000000000000000000000000000000000000000000000001681526020015b60405180910390f35b61009461008f3660046101db565b6100b9565b6040519015158152602001610078565b6100b76100b236600461020c565b6100e4565b005b60006001600160e01b03198216631c50089160e21b14806100de57506100de826101a7565b92915050565b60408051606083901b6bffffffffffffffffffffffff19166020820152815180820360140181526034820192839052631789cd6360e01b9092527f00000000000000000000000000000000000000000000000000000000000000006001600160a01b031690631789cd639061015f9085908590603801610235565b6020604051808303816000875af115801561017e573d6000803e3d6000fd5b505050506040513d601f19601f820116820180604052508101906101a29190610294565b505050565b60006001600160e01b031982166255674d60e11b14806100de57506301ffc9a760e01b6001600160e01b03198316146100de565b6000602082840312156101ed57600080fd5b81356001600160e01b03198116811461020557600080fd5b9392505050565b60006020828403121561021e57600080fd5b81356001600160a01b038116811461020557600080fd5b60018060a01b03831681526000602060406020840152835180604085015260005b8181101561027257858101830151858201606001528201610256565b506000606082860101526060601f19601f830116850101925050509392505050565b6000602082840312156102a657600080fd5b505191905056fea264697066735822122067eb2cbbebf4f60b955525722c94decdc4882777f1cf7b9c3524668255036e0f64736f6c63430008170033",
  "devdoc": {
    "kind": "dev",
    "methods": {
      "constructor": {
        "params": {
          "_inputBox": "The input box used by the relay"
        }
      },
      "getInputBox()": {
        "returns": {
          "_0": "The input box"
        }
      },
      "relayApplicationAddress(address)": {
        "params": {
          "_app": "The address of the application"
        }
      }
    },
    "title": "Application Address Relay",
    "version": 1
  },
  "userdoc": {
    "kind": "user",
    "methods": {
      "constructor": {
        "notice": "Constructs the relay."
      },
      "getInputBox()": {
        "notice": "Get the input box used by this input relay."
      },
      "relayApplicationAddress(address)": {
        "notice": "Add an input to an application's input box with its address."
      }
    },
    "notice": "This contract allows anyone to inform the off-chain machine of the address of the application contract in a trustless and permissionless way.",
    "version": 1
  },
  "storageLayout": {
    "storage": [],
    "types": null
  }
}