{
  "address": "0x418221d9CBd2E5295A5763CaC5fA9e2ef68c2113",
  "abi": [
    {
      "anonymous": false,
      "inputs": [
        {
          "indexed": false,
          "internalType": "address",
          "name": "authorityOwner",
          "type": "address"
        },
        {
          "indexed": false,
          "internalType": "contract Authority",
          "name": "authority",
          "type": "address"
        }
      ],
      "name": "AuthorityCreated",
      "type": "event"
    },
    {
      "inputs": [
        {
          "internalType": "address",
          "name": "_authorityOwner",
          "type": "address"
        },
        {
          "internalType": "bytes32",
          "name": "_salt",
          "type": "bytes32"
        }
      ],
      "name": "calculateAuthorityAddress",
      "outputs": [
        {
          "internalType": "address",
          "name": "",
          "type": "address"
        }
      ],
      "stateMutability": "view",
      "type": "function"
    },
    {
      "inputs": [
        {
          "internalType": "address",
          "name": "_authorityOwner",
          "type": "address"
        },
        {
          "internalType": "bytes32",
          "name": "_salt",
          "type": "bytes32"
        }
      ],
      "name": "newAuthority",
      "outputs": [
        {
          "internalType": "contract Authority",
          "name": "",
          "type": "address"
        }
      ],
      "stateMutability": "nonpayable",
      "type": "function"
    },
    {
      "inputs": [
        {
          "internalType": "address",
          "name": "_authorityOwner",
          "type": "address"
        }
      ],
      "name": "newAuthority",
      "outputs": [
        {
          "internalType": "contract Authority",
          "name": "",
          "type": "address"
        }
      ],
      "stateMutability": "nonpayable",
      "type": "function"
    }
  ],
  "transactionHash": "0x6cf4a2252abd44556a9b1ff3aa150cb9e6ee404fbc51c4f0d53ccf86d9f09c6b",
  "args": [],
  "numDeployments": 1,
  "solcInputHash": "ed73503a9e587d6de3f12590146837ca",
  "bytecode": "0x608060405234801561001057600080fd5b506107fe806100206000396000f3fe608060405234801561001057600080fd5b50600436106100405760003560e01c80629c5784146100455780635a3f27d314610074578063b3a51b8414610087575b600080fd5b610058610053366004610288565b61009a565b6040516001600160a01b03909116815260200160405180910390f35b610058610082366004610288565b610115565b6100586100953660046102b2565b6101a4565b600061010e82604051806020016100b09061025f565b601f1982820381018352601f9091011660408181526001600160a01b03881660208301520160408051601f19818403018152908290526100f392916020016102fd565b6040516020818303038152906040528051906020012061022d565b9392505050565b60008082846040516101269061025f565b6001600160a01b0390911681526020018190604051809103906000f5905080158015610156573d6000803e3d6000fd5b50604080516001600160a01b038088168252831660208201529192507f0fb2d916aa6a78060ff9e89d89d62797c6668818dec04969013c5098754380ec910160405180910390a19392505050565b600080826040516101b49061025f565b6001600160a01b039091168152602001604051809103906000f0801580156101e0573d6000803e3d6000fd5b50604080516001600160a01b038087168252831660208201529192507f0fb2d916aa6a78060ff9e89d89d62797c6668818dec04969013c5098754380ec910160405180910390a192915050565b600061010e8383306000604051836040820152846020820152828152600b8101905060ff815360559020949350505050565b6104ae8061031b83390190565b80356001600160a01b038116811461028357600080fd5b919050565b6000806040838503121561029b57600080fd5b6102a48361026c565b946020939093013593505050565b6000602082840312156102c457600080fd5b61010e8261026c565b6000815160005b818110156102ee57602081850181015186830152016102d4565b50600093019283525090919050565b600061031261030c83866102cd565b846102cd565b94935050505056fe608060405234801561001057600080fd5b506040516104ae3803806104ae83398101604081905261002f916100c0565b806001600160a01b03811661005e57604051631e4fbdf760e01b81526000600482015260240160405180910390fd5b6100678161006e565b50506100f0565b600180546001600160a01b038381166001600160a01b0319831681179093556040519116919082907f8be0079c531659141344cd1fd0a4f28419497f9722a3daafe3b4186f6b6457e090600090a35050565b6000602082840312156100d257600080fd5b81516001600160a01b03811681146100e957600080fd5b9392505050565b6103af806100ff6000396000f3fe608060405234801561001057600080fd5b50600436106100575760003560e01c8063394292431461005c57806359cce9ca146100ae578063715018a6146100c35780638da5cb5b146100cb578063f2fde38b146100e6575b600080fd5b61009b61006a3660046102e6565b6001600160a01b03909116600090815260208181526040808320843584528252808320938201358352929052205490565b6040519081526020015b60405180910390f35b6100c16100bc36600461031a565b6100f9565b005b6100c1610163565b6001546040516001600160a01b0390911681526020016100a5565b6100c16100f4366004610357565b610177565b6101016101ba565b6040805183358152602080850135908201529081018290526001600160a01b0384169033907fa2b08948f17452e24cfabef4e5cd0e466b8b6aa392503b5c8f931202fb10dfb29060600160405180910390a361015e8383836101e7565b505050565b61016b6101ba565b6101756000610260565b565b61017f6101ba565b6001600160a01b0381166101ae57604051631e4fbdf760e01b8152600060048201526024015b60405180910390fd5b6101b781610260565b50565b6001546001600160a01b031633146101755760405163118cdaa760e01b81523360048201526024016101a5565b6001600160a01b038316600081815260208181526040808320863580855290835281842087840135808652908452938290208690558151908152918201929092529081018390527fa6b067db1718093e8cf3ae4df843ba203c83f86f719765ad80a11b374c2b44e59060600160405180910390a2505050565b600180546001600160a01b038381166001600160a01b0319831681179093556040519116919082907f8be0079c531659141344cd1fd0a4f28419497f9722a3daafe3b4186f6b6457e090600090a35050565b80356001600160a01b03811681146102c957600080fd5b919050565b6000604082840312156102e057600080fd5b50919050565b600080606083850312156102f957600080fd5b610302836102b2565b915061031184602085016102ce565b90509250929050565b60008060006080848603121561032f57600080fd5b610338846102b2565b925061034785602086016102ce565b9150606084013590509250925092565b60006020828403121561036957600080fd5b610372826102b2565b939250505056fea264697066735822122035c7af244c1df4007ece683fbb511e1beed0eeace096f682d3b8c091429b9fbb64736f6c63430008170033a2646970667358221220d661466de92d8989fdf93445d876f9b72554812bca9c8e51d5ffb1ea4119a15764736f6c63430008170033",
  "devdoc": {
    "events": {
      "AuthorityCreated(address,address)": {
        "details": "MUST be triggered on a successful call to `newAuthority`.",
        "params": {
          "authority": "The authority",
          "authorityOwner": "The initial authority owner"
        }
      }
    },
    "kind": "dev",
    "methods": {
      "calculateAuthorityAddress(address,bytes32)": {
        "details": "Beware that only the `newAuthority` function with the `_salt` parameter      is able to deterministically deploy an authority.",
        "params": {
          "_authorityOwner": "The initial authority owner",
          "_salt": "The salt used to deterministically generate the authority address"
        },
        "returns": {
          "_0": "The deterministic authority address"
        }
      },
      "newAuthority(address)": {
        "details": "On success, MUST emit an `AuthorityCreated` event.",
        "params": {
          "_authorityOwner": "The initial authority owner"
        },
        "returns": {
          "_0": "The authority"
        }
      },
      "newAuthority(address,bytes32)": {
        "details": "On success, MUST emit an `AuthorityCreated` event.",
        "params": {
          "_authorityOwner": "The initial authority owner",
          "_salt": "The salt used to deterministically generate the authority address"
        },
        "returns": {
          "_0": "The authority"
        }
      }
    },
    "title": "Authority Factory",
    "version": 1
  },
  "userdoc": {
    "events": {
      "AuthorityCreated(address,address)": {
        "notice": "A new authority was deployed."
      }
    },
    "kind": "user",
    "methods": {
      "calculateAuthorityAddress(address,bytes32)": {
        "notice": "Calculate the address of an authority to be deployed deterministically."
      },
      "newAuthority(address)": {
        "notice": "Deploy a new authority."
      },
      "newAuthority(address,bytes32)": {
        "notice": "Deploy a new authority deterministically."
      }
    },
    "notice": "Allows anyone to reliably deploy a new `Authority` contract.",
    "version": 1
  },
  "storageLayout": {
    "storage": [],
    "types": null
  }
}