{
  "address": "0x14C344FC38fc19404771D9ad1c9429025fEA221D",
  "abi": [
    {
      "inputs": [
        {
          "internalType": "contract IInputBox",
          "name": "_inputBox",
          "type": "address"
        }
      ],
      "stateMutability": "nonpayable",
      "type": "constructor"
    },
    {
      "inputs": [
        {
          "internalType": "contract IERC1155",
          "name": "_token",
          "type": "address"
        },
        {
          "internalType": "address",
          "name": "_app",
          "type": "address"
        },
        {
          "internalType": "uint256[]",
          "name": "_tokenIds",
          "type": "uint256[]"
        },
        {
          "internalType": "uint256[]",
          "name": "_values",
          "type": "uint256[]"
        },
        {
          "internalType": "bytes",
          "name": "_baseLayerData",
          "type": "bytes"
        },
        {
          "internalType": "bytes",
          "name": "_execLayerData",
          "type": "bytes"
        }
      ],
      "name": "depositBatchERC1155Token",
      "outputs": [],
      "stateMutability": "nonpayable",
      "type": "function"
    },
    {
      "inputs": [],
      "name": "getInputBox",
      "outputs": [
        {
          "internalType": "contract IInputBox",
          "name": "",
          "type": "address"
        }
      ],
      "stateMutability": "view",
      "type": "function"
    },
    {
      "inputs": [
        {
          "internalType": "bytes4",
          "name": "interfaceId",
          "type": "bytes4"
        }
      ],
      "name": "supportsInterface",
      "outputs": [
        {
          "internalType": "bool",
          "name": "",
          "type": "bool"
        }
      ],
      "stateMutability": "view",
      "type": "function"
    }
  ],
  "transactionHash": "0x6df18a504fce4c8d165e38c958d52b2dd47a3707ff6f5a404401cc8929648790",
  "args": [
    "0xB572d5C134C0071ceF9B845E8CbDa56Bb39110bE"
  ],
  "numDeployments": 1,
  "solcInputHash": "ed73503a9e587d6de3f12590146837ca",
  "bytecode": "0x60a060405234801561001057600080fd5b5060405161070238038061070283398101604081905261002f91610040565b6001600160a01b0316608052610070565b60006020828403121561005257600080fd5b81516001600160a01b038116811461006957600080fd5b9392505050565b608051610671610091600039600081816052015261017e01526106716000f3fe608060405234801561001057600080fd5b50600436106100405760003560e01c8062aace9a1461004557806301ffc9a71461008157806324d15c67146100a4575b600080fd5b6040516001600160a01b037f00000000000000000000000000000000000000000000000000000000000000001681526020015b60405180910390f35b61009461008f3660046102a3565b6100b9565b6040519015158152602001610078565b6100b76100b236600461037e565b6100e4565b005b60006001600160e01b031982166324d15c6760e01b14806100de57506100de82610206565b92915050565b604051631759616b60e11b81526001600160a01b038b1690632eb2c2d69061011e9033908d908d908d908d908d908d908d906004016104c1565b600060405180830381600087803b15801561013857600080fd5b505af115801561014c573d6000803e3d6000fd5b5050505060006101648b338b8b8b8b8b8b8b8b61023a565b604051631789cd6360e01b81529091506001600160a01b037f00000000000000000000000000000000000000000000000000000000000000001690631789cd63906101b5908d908590600401610549565b6020604051808303816000875af11580156101d4573d6000803e3d6000fd5b505050506040513d601f19601f820116820180604052508101906101f8919061058b565b505050505050505050505050565b60006001600160e01b031982166255674d60e11b14806100de57506301ffc9a760e01b6001600160e01b03198316146100de565b60606000898989898989898960405160200161025d9897969594939291906105a4565b60405160208183030381529060405290508b8b82604051602001610283939291906105f5565b6040516020818303038152906040529150509a9950505050505050505050565b6000602082840312156102b557600080fd5b81356001600160e01b0319811681146102cd57600080fd5b9392505050565b80356001600160a01b03811681146102eb57600080fd5b919050565b60008083601f84011261030257600080fd5b50813567ffffffffffffffff81111561031a57600080fd5b6020830191508360208260051b850101111561033557600080fd5b9250929050565b60008083601f84011261034e57600080fd5b50813567ffffffffffffffff81111561036657600080fd5b60208301915083602082850101111561033557600080fd5b60008060008060008060008060008060c08b8d03121561039d57600080fd5b6103a68b6102d4565b99506103b460208c016102d4565b985060408b013567ffffffffffffffff808211156103d157600080fd5b6103dd8e838f016102f0565b909a50985060608d01359150808211156103f657600080fd5b6104028e838f016102f0565b909850965060808d013591508082111561041b57600080fd5b6104278e838f0161033c565b909650945060a08d013591508082111561044057600080fd5b5061044d8d828e0161033c565b915080935050809150509295989b9194979a5092959850565b81835260006001600160fb1b0383111561047f57600080fd5b8260051b80836020870137939093016020019392505050565b81835281816020850137506000828201602090810191909152601f909101601f19169091010190565b6001600160a01b0389811682528816602082015260a0604082018190526000906104ee908301888a610466565b8281036060840152610501818789610466565b90508281036080840152610516818587610498565b9b9a5050505050505050505050565b60005b83811015610540578181015183820152602001610528565b50506000910152565b60018060a01b03831681526040602082015260008251806040840152610576816060850160208701610525565b601f01601f1916919091016060019392505050565b60006020828403121561059d57600080fd5b5051919050565b6080815260006105b8608083018a8c610466565b82810360208401526105cb81898b610466565b905082810360408401526105e0818789610498565b90508281036060840152610516818587610498565b60006bffffffffffffffffffffffff19808660601b168352808560601b16601484015250825161062c816028850160208701610525565b9190910160280194935050505056fea2646970667358221220600a6215c26929dff9320824ad0c1e637415775c6471dced792e26b719ffb7b864736f6c63430008170033",
  "devdoc": {
    "kind": "dev",
    "methods": {
      "constructor": {
        "params": {
          "_inputBox": "The input box used by the portal"
        }
      },
      "depositBatchERC1155Token(address,address,uint256[],uint256[],bytes,bytes)": {
        "details": "Please make sure `_tokenIds` and `_values` have the same length.",
        "params": {
          "_app": "The address of the application",
          "_baseLayerData": "Additional data to be interpreted by the base layer",
          "_execLayerData": "Additional data to be interpreted by the execution layer",
          "_token": "The ERC-1155 token contract",
          "_tokenIds": "The identifiers of the tokens being transferred",
          "_values": "Transfer amounts per token type"
        }
      },
      "getInputBox()": {
        "returns": {
          "_0": "The input box"
        }
      }
    },
    "title": "ERC-1155 Batch Transfer Portal",
    "version": 1
  },
  "userdoc": {
    "kind": "user",
    "methods": {
      "constructor": {
        "notice": "Constructs the portal."
      },
      "depositBatchERC1155Token(address,address,uint256[],uint256[],bytes,bytes)": {
        "notice": "Transfer a batch of ERC-1155 tokens to an application and add an input to the application's input box to signal such operation. The caller must enable approval for the portal to manage all of their tokens beforehand, by calling the `setApprovalForAll` function in the token contract."
      },
      "getInputBox()": {
        "notice": "Get the input box used by this input relay."
      }
    },
    "notice": "This contract allows anyone to perform batch transfers of ERC-1155 tokens to an application while informing the off-chain machine.",
    "version": 1
  },
  "storageLayout": {
    "storage": [],
    "types": null
  }
}