{
  "address": "0xA7143F6f0f1d34EF39d75034A855b1c36D9A55D9",
  "abi": [
    {
      "inputs": [
        {
          "internalType": "contract IInputBox",
          "name": "_inputBox",
          "type": "address"
        }
      ],
      "stateMutability": "nonpayable",
      "type": "constructor"
    },
    {
      "inputs": [
        {
          "internalType": "contract IERC1155",
          "name": "_token",
          "type": "address"
        },
        {
          "internalType": "address",
          "name": "_app",
          "type": "address"
        },
        {
          "internalType": "uint256",
          "name": "_tokenId",
          "type": "uint256"
        },
        {
          "internalType": "uint256",
          "name": "_value",
          "type": "uint256"
        },
        {
          "internalType": "bytes",
          "name": "_baseLayerData",
          "type": "bytes"
        },
        {
          "internalType": "bytes",
          "name": "_execLayerData",
          "type": "bytes"
        }
      ],
      "name": "depositSingleERC1155Token",
      "outputs": [],
      "stateMutability": "nonpayable",
      "type": "function"
    },
    {
      "inputs": [],
      "name": "getInputBox",
      "outputs": [
        {
          "internalType": "contract IInputBox",
          "name": "",
          "type": "address"
        }
      ],
      "stateMutability": "view",
      "type": "function"
    },
    {
      "inputs": [
        {
          "internalType": "bytes4",
          "name": "interfaceId",
          "type": "bytes4"
        }
      ],
      "name": "supportsInterface",
      "outputs": [
        {
          "internalType": "bool",
          "name": "",
          "type": "bool"
        }
      ],
      "stateMutability": "view",
      "type": "function"
    }
  ],
  "transactionHash": "0x3378716ab1fb2de48684aec7ebd696b2d084279f6cf1ec4f4490b890995206c4",
  "args": [
    "0xB572d5C134C0071ceF9B845E8CbDa56Bb39110bE"
  ],
  "numDeployments": 1,
  "solcInputHash": "ed73503a9e587d6de3f12590146837ca",
  "bytecode": "0x60a060405234801561001057600080fd5b5060405161060b38038061060b83398101604081905261002f91610040565b6001600160a01b0316608052610070565b60006020828403121561005257600080fd5b81516001600160a01b038116811461006957600080fd5b9392505050565b60805161057a6100916000396000818160520152610178015261057a6000f3fe608060405234801561001057600080fd5b50600436106100405760003560e01c8062aace9a1461004557806301ffc9a714610081578063dec07dca146100a4575b600080fd5b6040516001600160a01b037f00000000000000000000000000000000000000000000000000000000000000001681526020015b60405180910390f35b61009461008f366004610295565b6100b9565b6040519015158152602001610078565b6100b76100b2366004610327565b6100e4565b005b60006001600160e01b03198216636f603ee560e11b14806100de57506100de826101fe565b92915050565b604051637921219560e11b81526001600160a01b0389169063f242432a9061011a9033908b908b908b908b908b906004016103f8565b600060405180830381600087803b15801561013457600080fd5b505af1158015610148573d6000803e3d6000fd5b50505050600061015e8933898989898989610232565b604051631789cd6360e01b81529091506001600160a01b037f00000000000000000000000000000000000000000000000000000000000000001690631789cd63906101af908b908590600401610463565b6020604051808303816000875af11580156101ce573d6000803e3d6000fd5b505050506040513d601f19601f820116820180604052508101906101f291906104a5565b50505050505050505050565b60006001600160e01b031982166255674d60e11b14806100de57506301ffc9a760e01b6001600160e01b03198316146100de565b606060008585858560405160200161024d94939291906104be565b604051602081830303815290604052905089898989846040516020016102779594939291906104f0565b60405160208183030381529060405291505098975050505050505050565b6000602082840312156102a757600080fd5b81356001600160e01b0319811681146102bf57600080fd5b9392505050565b6001600160a01b03811681146102db57600080fd5b50565b60008083601f8401126102f057600080fd5b50813567ffffffffffffffff81111561030857600080fd5b60208301915083602082850101111561032057600080fd5b9250929050565b60008060008060008060008060c0898b03121561034357600080fd5b883561034e816102c6565b9750602089013561035e816102c6565b96506040890135955060608901359450608089013567ffffffffffffffff8082111561038957600080fd5b6103958c838d016102de565b909650945060a08b01359150808211156103ae57600080fd5b506103bb8b828c016102de565b999c989b5096995094979396929594505050565b81835281816020850137506000828201602090810191909152601f909101601f19169091010190565b6001600160a01b03878116825286166020820152604081018590526060810184905260a06080820181905260009061043390830184866103cf565b98975050505050505050565b60005b8381101561045a578181015183820152602001610442565b50506000910152565b60018060a01b0383168152604060208201526000825180604084015261049081606085016020870161043f565b601f01601f1916919091016060019392505050565b6000602082840312156104b757600080fd5b5051919050565b6040815260006104d26040830186886103cf565b82810360208401526104e58185876103cf565b979650505050505050565b60006bffffffffffffffffffffffff19808860601b168352808760601b16601484015250846028830152836048830152825161053381606885016020870161043f565b91909101606801969550505050505056fea264697066735822122059e8ca0b900964c4ccfc1627d7eebd8ede66569f9a3bada7bf01d2c46a13e39e64736f6c63430008170033",
  "devdoc": {
    "kind": "dev",
    "methods": {
      "constructor": {
        "params": {
          "_inputBox": "The input box used by the portal"
        }
      },
      "depositSingleERC1155Token(address,address,uint256,uint256,bytes,bytes)": {
        "params": {
          "_app": "The address of the application",
          "_baseLayerData": "Additional data to be interpreted by the base layer",
          "_execLayerData": "Additional data to be interpreted by the execution layer",
          "_token": "The ERC-1155 token contract",
          "_tokenId": "The identifier of the token being transferred",
          "_value": "Transfer amount"
        }
      },
      "getInputBox()": {
        "returns": {
          "_0": "The input box"
        }
      }
    },
    "title": "ERC-1155 Single Transfer Portal",
    "version": 1
  },
  "userdoc": {
    "kind": "user",
    "methods": {
      "constructor": {
        "notice": "Constructs the portal."
      },
      "depositSingleERC1155Token(address,address,uint256,uint256,bytes,bytes)": {
        "notice": "Transfer an ERC-1155 token to an application and add an input to the application's input box to signal such operation. The caller must enable approval for the portal to manage all of their tokens beforehand, by calling the `setApprovalForAll` function in the token contract."
      },
      "getInputBox()": {
        "notice": "Get the input box used by this input relay."
      }
    },
    "notice": "This contract allows anyone to perform single transfers of ERC-1155 tokens to an application while informing the off-chain machine.",
    "version": 1
  },
  "storageLayout": {
    "storage": [],
    "types": null
  }
}