{
  "address": "0x6Fa46dA821e3fF6B30D5D164F68A540443f255Fa",
  "abi": [
    {
      "inputs": [
        {
          "internalType": "contract IInputBox",
          "name": "_inputBox",
          "type": "address"
        }
      ],
      "stateMutability": "nonpayable",
      "type": "constructor"
    },
    {
      "inputs": [
        {
          "internalType": "address",
          "name": "target",
          "type": "address"
        }
      ],
      "name": "AddressEmptyCode",
      "type": "error"
    },
    {
      "inputs": [
        {
          "internalType": "address",
          "name": "account",
          "type": "address"
        }
      ],
      "name": "AddressInsufficientBalance",
      "type": "error"
    },
    {
      "inputs": [],
      "name": "FailedInnerCall",
      "type": "error"
    },
    {
      "inputs": [
        {
          "internalType": "address",
          "name": "token",
          "type": "address"
        }
      ],
      "name": "SafeERC20FailedOperation",
      "type": "error"
    },
    {
      "inputs": [
        {
          "internalType": "contract IERC20",
          "name": "_token",
          "type": "address"
        },
        {
          "internalType": "address",
          "name": "_app",
          "type": "address"
        },
        {
          "internalType": "uint256",
          "name": "_amount",
          "type": "uint256"
        },
        {
          "internalType": "bytes",
          "name": "_execLayerData",
          "type": "bytes"
        }
      ],
      "name": "depositERC20Tokens",
      "outputs": [],
      "stateMutability": "nonpayable",
      "type": "function"
    },
    {
      "inputs": [],
      "name": "getInputBox",
      "outputs": [
        {
          "internalType": "contract IInputBox",
          "name": "",
          "type": "address"
        }
      ],
      "stateMutability": "view",
      "type": "function"
    },
    {
      "inputs": [
        {
          "internalType": "bytes4",
          "name": "interfaceId",
          "type": "bytes4"
        }
      ],
      "name": "supportsInterface",
      "outputs": [
        {
          "internalType": "bool",
          "name": "",
          "type": "bool"
        }
      ],
      "stateMutability": "view",
      "type": "function"
    }
  ],
  "transactionHash": "0x2021fc5530601c2cc87ba59c703fd45aefde6768544d3373ac664ea071d83ca8",
  "args": [
    "0xB572d5C134C0071ceF9B845E8CbDa56Bb39110bE"
  ],
  "numDeployments": 1,
  "solcInputHash": "ed73503a9e587d6de3f12590146837ca",
  "bytecode": "0x60a060405234801561001057600080fd5b506040516106bb3803806106bb83398101604081905261002f91610040565b6001600160a01b0316608052610070565b60006020828403121561005257600080fd5b81516001600160a01b038116811461006957600080fd5b9392505050565b60805161062a6100916000396000818160520152610122015261062a6000f3fe608060405234801561001057600080fd5b50600436106100405760003560e01c8062aace9a1461004557806301ffc9a71461008157806395854b81146100a4575b600080fd5b6040516001600160a01b037f00000000000000000000000000000000000000000000000000000000000000001681526020015b60405180910390f35b61009461008f366004610415565b6100b9565b6040519015158152602001610078565b6100b76100b2366004610454565b6100e4565b005b60006001600160e01b031982166395854b8160e01b14806100de57506100de826101a5565b92915050565b6100f96001600160a01b0386163386866101d9565b60006101088633868686610239565b604051631789cd6360e01b81529091506001600160a01b037f00000000000000000000000000000000000000000000000000000000000000001690631789cd63906101599088908590600401610517565b6020604051808303816000875af1158015610178573d6000803e3d6000fd5b505050506040513d601f19601f8201168201806040525081019061019c9190610559565b50505050505050565b60006001600160e01b031982166255674d60e11b14806100de57506301ffc9a760e01b6001600160e01b03198316146100de565b604080516001600160a01b0385811660248301528416604482015260648082018490528251808303909101815260849091019091526020810180516001600160e01b03166323b872dd60e01b17905261023390859061026e565b50505050565b60608585858585604051602001610254959493929190610572565b604051602081830303815290604052905095945050505050565b60006102836001600160a01b038416836102db565b905080516000141580156102a85750808060200190518101906102a691906105b6565b155b156102d657604051635274afe760e01b81526001600160a01b03841660048201526024015b60405180910390fd5b505050565b60606102e9838360006102f0565b9392505050565b6060814710156103155760405163cd78605960e01b81523060048201526024016102cd565b600080856001600160a01b0316848660405161033191906105d8565b60006040518083038185875af1925050503d806000811461036e576040519150601f19603f3d011682016040523d82523d6000602084013e610373565b606091505b509150915061038386838361038d565b9695505050505050565b6060826103a25761039d826103e9565b6102e9565b81511580156103b957506001600160a01b0384163b155b156103e257604051639996b31560e01b81526001600160a01b03851660048201526024016102cd565b50806102e9565b8051156103f95780518082602001fd5b604051630a12f52160e11b815260040160405180910390fd5b50565b60006020828403121561042757600080fd5b81356001600160e01b0319811681146102e957600080fd5b6001600160a01b038116811461041257600080fd5b60008060008060006080868803121561046c57600080fd5b85356104778161043f565b945060208601356104878161043f565b935060408601359250606086013567ffffffffffffffff808211156104ab57600080fd5b818801915088601f8301126104bf57600080fd5b8135818111156104ce57600080fd5b8960208285010111156104e057600080fd5b9699959850939650602001949392505050565b60005b8381101561050e5781810151838201526020016104f6565b50506000910152565b60018060a01b038316815260406020820152600082518060408401526105448160608501602087016104f3565b601f01601f1916919091016060019392505050565b60006020828403121561056b57600080fd5b5051919050565b60006bffffffffffffffffffffffff19808860601b168352808760601b16601484015250846028830152828460488401375060009101604801908152949350505050565b6000602082840312156105c857600080fd5b815180151581146102e957600080fd5b600082516105ea8184602087016104f3565b919091019291505056fea2646970667358221220f8b433a48b451674d9d8d5d23a836c0b86040cf9ba68b110b438a4f4fa6fec5c64736f6c63430008170033",
  "devdoc": {
    "errors": {
      "AddressEmptyCode(address)": [
        {
          "details": "There's no code at `target` (it is not a contract)."
        }
      ],
      "AddressInsufficientBalance(address)": [
        {
          "details": "The ETH balance of the account is not enough to perform the operation."
        }
      ],
      "FailedInnerCall()": [
        {
          "details": "A call to an address target failed. The target may have reverted."
        }
      ],
      "SafeERC20FailedOperation(address)": [
        {
          "details": "An operation with an ERC20 token failed."
        }
      ]
    },
    "kind": "dev",
    "methods": {
      "constructor": {
        "params": {
          "_inputBox": "The input box used by the portal"
        }
      },
      "depositERC20Tokens(address,address,uint256,bytes)": {
        "params": {
          "_amount": "The amount of tokens to be transferred",
          "_app": "The address of the application",
          "_execLayerData": "Additional data to be interpreted by the execution layer",
          "_token": "The ERC-20 token contract"
        }
      },
      "getInputBox()": {
        "returns": {
          "_0": "The input box"
        }
      }
    },
    "title": "ERC-20 Portal",
    "version": 1
  },
  "userdoc": {
    "kind": "user",
    "methods": {
      "constructor": {
        "notice": "Constructs the portal."
      },
      "depositERC20Tokens(address,address,uint256,bytes)": {
        "notice": "Transfer ERC-20 tokens to an application and add an input to the application's input box to signal such operation. The caller must allow the portal to withdraw at least `_amount` tokens from their account beforehand, by calling the `approve` function in the token contract."
      },
      "getInputBox()": {
        "notice": "Get the input box used by this input relay."
      }
    },
    "notice": "This contract allows anyone to perform transfers of ERC-20 tokens to an application while informing the off-chain machine.",
    "version": 1
  },
  "storageLayout": {
    "storage": [],
    "types": null
  }
}