{
  "address": "0xC7554eE991B4AcfB7B5Be5F8E0221f9Eb002Ad52",
  "abi": [
    {
      "inputs": [
        {
          "internalType": "contract IInputBox",
          "name": "_inputBox",
          "type": "address"
        }
      ],
      "stateMutability": "nonpayable",
      "type": "constructor"
    },
    {
      "inputs": [
        {
          "internalType": "address",
          "name": "account",
          "type": "address"
        }
      ],
      "name": "AddressInsufficientBalance",
      "type": "error"
    },
    {
      "inputs": [],
      "name": "FailedInnerCall",
      "type": "error"
    },
    {
      "inputs": [
        {
          "internalType": "address payable",
          "name": "_app",
          "type": "address"
        },
        {
          "internalType": "bytes",
          "name": "_execLayerData",
          "type": "bytes"
        }
      ],
      "name": "depositEther",
      "outputs": [],
      "stateMutability": "payable",
      "type": "function"
    },
    {
      "inputs": [],
      "name": "getInputBox",
      "outputs": [
        {
          "internalType": "contract IInputBox",
          "name": "",
          "type": "address"
        }
      ],
      "stateMutability": "view",
      "type": "function"
    },
    {
      "inputs": [
        {
          "internalType": "bytes4",
          "name": "interfaceId",
          "type": "bytes4"
        }
      ],
      "name": "supportsInterface",
      "outputs": [
        {
          "internalType": "bool",
          "name": "",
          "type": "bool"
        }
      ],
      "stateMutability": "view",
      "type": "function"
    }
  ],
  "transactionHash": "0xefbeebf57615482d1ec025af250d2ac8cff0b22a01bf714387280b4eb6a2528f",
  "args": [
    "0xB572d5C134C0071ceF9B845E8CbDa56Bb39110bE"
  ],
  "numDeployments": 1,
  "solcInputHash": "ed73503a9e587d6de3f12590146837ca",
  "bytecode": "0x60a060405234801561001057600080fd5b506040516104e73803806104e783398101604081905261002f91610040565b6001600160a01b0316608052610070565b60006020828403121561005257600080fd5b81516001600160a01b038116811461006957600080fd5b9392505050565b608051610456610091600039600081816052015261012c01526104566000f3fe6080604052600436106100335760003560e01c8062aace9a1461003857806301ffc9a714610081578063938c054f146100b1575b600080fd5b34801561004457600080fd5b506040516001600160a01b037f00000000000000000000000000000000000000000000000000000000000000001681526020015b60405180910390f35b34801561008d57600080fd5b506100a161009c3660046102b3565b6100c6565b6040519015158152602001610078565b6100c46100bf3660046102e4565b6100f1565b005b60006001600160e01b0319821663938c054f60e01b14806100eb57506100eb826101ad565b92915050565b6101046001600160a01b038416346101e1565b600061011233348585610281565b604051631789cd6360e01b81529091506001600160a01b037f00000000000000000000000000000000000000000000000000000000000000001690631789cd63906101639087908590600401610375565b6020604051808303816000875af1158015610182573d6000803e3d6000fd5b505050506040513d601f19601f820116820180604052508101906101a691906103d4565b5050505050565b60006001600160e01b031982166255674d60e11b14806100eb57506301ffc9a760e01b6001600160e01b03198316146100eb565b804710156102085760405163cd78605960e01b815230600482015260240160405180910390fd5b6000826001600160a01b03168260405160006040518083038185875af1925050503d8060008114610255576040519150601f19603f3d011682016040523d82523d6000602084013e61025a565b606091505b505090508061027c57604051630a12f52160e11b815260040160405180910390fd5b505050565b60608484848460405160200161029a94939291906103ed565b6040516020818303038152906040529050949350505050565b6000602082840312156102c557600080fd5b81356001600160e01b0319811681146102dd57600080fd5b9392505050565b6000806000604084860312156102f957600080fd5b83356001600160a01b038116811461031057600080fd5b9250602084013567ffffffffffffffff8082111561032d57600080fd5b818601915086601f83011261034157600080fd5b81358181111561035057600080fd5b87602082850101111561036257600080fd5b6020830194508093505050509250925092565b60018060a01b03831681526000602060406020840152835180604085015260005b818110156103b257858101830151858201606001528201610396565b506000606082860101526060601f19601f830116850101925050509392505050565b6000602082840312156103e657600080fd5b5051919050565b6bffffffffffffffffffffffff198560601b1681528360148201528183603483013760009101603401908152939250505056fea2646970667358221220dcb00a36f6864aba01aa31589b5a757d4f3ca1829ff1f9a4a99fc37c0eae808964736f6c63430008170033",
  "devdoc": {
    "errors": {
      "AddressInsufficientBalance(address)": [
        {
          "details": "The ETH balance of the account is not enough to perform the operation."
        }
      ],
      "FailedInnerCall()": [
        {
          "details": "A call to an address target failed. The target may have reverted."
        }
      ]
    },
    "kind": "dev",
    "methods": {
      "constructor": {
        "params": {
          "_inputBox": "The input box used by the portal"
        }
      },
      "depositEther(address,bytes)": {
        "details": "All the value sent through this function is forwarded to the application.      If the transfer fails, `EtherTransferFailed` error is raised.",
        "params": {
          "_app": "The address of the application",
          "_execLayerData": "Additional data to be interpreted by the execution layer"
        }
      },
      "getInputBox()": {
        "returns": {
          "_0": "The input box"
        }
      }
    },
    "title": "Ether Portal",
    "version": 1
  },
  "userdoc": {
    "kind": "user",
    "methods": {
      "constructor": {
        "notice": "Constructs the portal."
      },
      "depositEther(address,bytes)": {
        "notice": "Transfer Ether to an application and add an input to the application's input box to signal such operation. All the value sent through this function is forwarded to the application."
      },
      "getInputBox()": {
        "notice": "Get the input box used by this input relay."
      }
    },
    "notice": "This contract allows anyone to perform transfers of Ether to an application while informing the off-chain machine.",
    "version": 1
  },
  "storageLayout": {
    "storage": [],
    "types": null
  }
}