{
  "address": "0x922a84c4a6dED3598Dd5E2b9c7575CF652049E3A",
  "abi": [
    {
      "inputs": [
        {
          "internalType": "contract IInputBox",
          "name": "inputBox",
          "type": "address"
        }
      ],
      "stateMutability": "nonpayable",
      "type": "constructor"
    },
    {
      "inputs": [
        {
          "internalType": "contract IERC721",
          "name": "token",
          "type": "address"
        },
        {
          "internalType": "address",
          "name": "appContract",
          "type": "address"
        },
        {
          "internalType": "uint256",
          "name": "tokenId",
          "type": "uint256"
        },
        {
          "internalType": "bytes",
          "name": "baseLayerData",
          "type": "bytes"
        },
        {
          "internalType": "bytes",
          "name": "execLayerData",
          "type": "bytes"
        }
      ],
      "name": "depositERC721Token",
      "outputs": [],
      "stateMutability": "nonpayable",
      "type": "function"
    },
    {
      "inputs": [],
      "name": "getInputBox",
      "outputs": [
        {
          "internalType": "contract IInputBox",
          "name": "",
          "type": "address"
        }
      ],
      "stateMutability": "view",
      "type": "function"
    },
    {
      "inputs": [
        {
          "internalType": "bytes4",
          "name": "interfaceId",
          "type": "bytes4"
        }
      ],
      "name": "supportsInterface",
      "outputs": [
        {
          "internalType": "bool",
          "name": "",
          "type": "bool"
        }
      ],
      "stateMutability": "view",
      "type": "function"
    }
  ],
  "transactionHash": "0xa9cfbda4483913035ee0a693e1435717c54d65df46d214a4bde7383ba5763f96",
  "args": [
    "0x58Df21fE097d4bE5dCf61e01d9ea3f6B81c2E1dB"
  ],
  "numDeployments": 8,
  "solcInputHash": "d5e580c56a1973c1da5089d8c687e7bd",
  "bytecode": "0x60a060405234801561001057600080fd5b506040516105e13803806105e183398101604081905261002f91610040565b6001600160a01b0316608052610070565b60006020828403121561005257600080fd5b81516001600160a01b038116811461006957600080fd5b9392505050565b608051610550610091600039600081816052015261017501526105506000f3fe608060405234801561001057600080fd5b50600436106100405760003560e01c8062aace9a1461004557806301ffc9a71461008157806328911e83146100a4575b600080fd5b6040516001600160a01b037f00000000000000000000000000000000000000000000000000000000000000001681526020015b60405180910390f35b61009461008f36600461028e565b6100b9565b6040519015158152602001610078565b6100b76100b2366004610320565b6100e4565b005b60006001600160e01b031982166328911e8360e01b14806100de57506100de826101fa565b92915050565b604051635c46a7ef60e11b81526001600160a01b0388169063b88d4fde906101189033908a908a908a908a906004016103e8565b600060405180830381600087803b15801561013257600080fd5b505af1158015610146573d6000803e3d6000fd5b50505050600061015b8833888888888861022e565b604051631789cd6360e01b81529091506001600160a01b037f00000000000000000000000000000000000000000000000000000000000000001690631789cd63906101ac908a90859060040161044b565b6020604051808303816000875af11580156101cb573d6000803e3d6000fd5b505050506040513d601f19601f820116820180604052508101906101ef919061048d565b505050505050505050565b60006001600160e01b031982166255674d60e11b14806100de57506301ffc9a760e01b6001600160e01b03198316146100de565b606060008585858560405160200161024994939291906104a6565b60405160208183030381529060405290508888888360405160200161027194939291906104cd565b604051602081830303815290604052915050979650505050505050565b6000602082840312156102a057600080fd5b81356001600160e01b0319811681146102b857600080fd5b9392505050565b6001600160a01b03811681146102d457600080fd5b50565b60008083601f8401126102e957600080fd5b50813567ffffffffffffffff81111561030157600080fd5b60208301915083602082850101111561031957600080fd5b9250929050565b600080600080600080600060a0888a03121561033b57600080fd5b8735610346816102bf565b96506020880135610356816102bf565b955060408801359450606088013567ffffffffffffffff8082111561037a57600080fd5b6103868b838c016102d7565b909650945060808a013591508082111561039f57600080fd5b506103ac8a828b016102d7565b989b979a50959850939692959293505050565b81835281816020850137506000828201602090810191909152601f909101601f19169091010190565b6001600160a01b038681168252851660208201526040810184905260806060820181905260009061041c90830184866103bf565b979650505050505050565b60005b8381101561044257818101518382015260200161042a565b50506000910152565b60018060a01b03831681526040602082015260008251806040840152610478816060850160208701610427565b601f01601f1916919091016060019392505050565b60006020828403121561049f57600080fd5b5051919050565b6040815260006104ba6040830186886103bf565b828103602084015261041c8185876103bf565b60006bffffffffffffffffffffffff19808760601b168352808660601b16601484015250836028830152825161050a816048850160208701610427565b919091016048019594505050505056fea2646970667358221220f9f739ffb2a36e4d9099273b3917caf01e17d127729777d77dbad6a39366304864736f6c63430008170033",
  "devdoc": {
    "kind": "dev",
    "methods": {
      "constructor": {
        "params": {
          "inputBox": "The input box used by the portal"
        }
      },
      "depositERC721Token(address,address,uint256,bytes,bytes)": {
        "params": {
          "appContract": "The application contract address",
          "baseLayerData": "Additional data to be interpreted by the base layer",
          "execLayerData": "Additional data to be interpreted by the execution layer",
          "token": "The ERC-721 token contract",
          "tokenId": "The identifier of the token being transferred"
        }
      },
      "getInputBox()": {
        "returns": {
          "_0": "The input box"
        }
      }
    },
    "title": "ERC-721 Portal",
    "version": 1
  },
  "userdoc": {
    "kind": "user",
    "methods": {
      "constructor": {
        "notice": "Constructs the portal."
      },
      "depositERC721Token(address,address,uint256,bytes,bytes)": {
        "notice": "Transfer an ERC-721 token to an application contract and add an input to the application's input box to signal such operation. The caller must change the approved address for the ERC-721 token to the portal address beforehand, by calling the `approve` function in the token contract."
      },
      "getInputBox()": {
        "notice": "Get the input box used by this portal."
      }
    },
    "notice": "This contract allows anyone to perform transfers of ERC-721 tokens to an application contract while informing the off-chain machine.",
    "version": 1
  },
  "storageLayout": {
    "storage": [],
    "types": null
  }
}