{
  "address": "0xB41851d69891748b27779e382cc8de6e8C128e1C",
  "abi": [
    {
      "anonymous": false,
      "inputs": [
        {
          "indexed": false,
          "internalType": "contract Quorum",
          "name": "quorum",
          "type": "address"
        }
      ],
      "name": "QuorumCreated",
      "type": "event"
    },
    {
      "inputs": [
        {
          "internalType": "address[]",
          "name": "validators",
          "type": "address[]"
        },
        {
          "internalType": "bytes32",
          "name": "salt",
          "type": "bytes32"
        }
      ],
      "name": "calculateQuorumAddress",
      "outputs": [
        {
          "internalType": "address",
          "name": "",
          "type": "address"
        }
      ],
      "stateMutability": "view",
      "type": "function"
    },
    {
      "inputs": [
        {
          "internalType": "address[]",
          "name": "validators",
          "type": "address[]"
        }
      ],
      "name": "newQuorum",
      "outputs": [
        {
          "internalType": "contract Quorum",
          "name": "",
          "type": "address"
        }
      ],
      "stateMutability": "nonpayable",
      "type": "function"
    },
    {
      "inputs": [
        {
          "internalType": "address[]",
          "name": "validators",
          "type": "address[]"
        },
        {
          "internalType": "bytes32",
          "name": "salt",
          "type": "bytes32"
        }
      ],
      "name": "newQuorum",
      "outputs": [
        {
          "internalType": "contract Quorum",
          "name": "",
          "type": "address"
        }
      ],
      "stateMutability": "nonpayable",
      "type": "function"
    }
  ],
  "transactionHash": "0x62c5c32c87a0908fd95f3a4b142244ae6f695b029631fd68382c28a096c21e2c",
  "args": [],
  "numDeployments": 1,
  "solcInputHash": "d5e580c56a1973c1da5089d8c687e7bd",
  "bytecode": "0x608060405234801561001057600080fd5b50610d60806100206000396000f3fe608060405234801561001057600080fd5b50600436106100415760003560e01c8063073e5afa146100465780634254a77e14610075578063cd4d3dec14610088575b600080fd5b6100596100543660046102b2565b61009b565b6040516001600160a01b03909116815260200160405180910390f35b6100596100833660046102f4565b61011a565b6100596100963660046102f4565b61019f565b60008083836040516100ac90610259565b6100b7929190610340565b604051809103906000f0801580156100d3573d6000803e3d6000fd5b506040516001600160a01b03821681529091507f446698b70271bce331e53210572bd37ac8c590b6cdca2e6763e6448243cba8029060200160405180910390a19392505050565b60008082858560405161012c90610259565b610137929190610340565b8190604051809103906000f5905080158015610157573d6000803e3d6000fd5b506040516001600160a01b03821681529091507f446698b70271bce331e53210572bd37ac8c590b6cdca2e6763e6448243cba8029060200160405180910390a1949350505050565b600061021382604051806020016101b590610259565b601f1982820381018352601f9091011660408190526101da9088908890602001610340565b60408051601f19818403018152908290526101f892916020016103c5565b6040516020818303038152906040528051906020012061021b565b949350505050565b600061022883833061022f565b9392505050565b6000604051836040820152846020820152828152600b8101905060ff815360559020949350505050565b610950806103db83390190565b60008083601f84011261027857600080fd5b50813567ffffffffffffffff81111561029057600080fd5b6020830191508360208260051b85010111156102ab57600080fd5b9250929050565b600080602083850312156102c557600080fd5b823567ffffffffffffffff8111156102dc57600080fd5b6102e885828601610266565b90969095509350505050565b60008060006040848603121561030957600080fd5b833567ffffffffffffffff81111561032057600080fd5b61032c86828701610266565b909790965060209590950135949350505050565b6020808252818101839052600090846040840183805b878110156103885783356001600160a01b038116808214610375578384fd5b8452509284019291840191600101610356565b5090979650505050505050565b6000815160005b818110156103b6576020818501810151868301520161039c565b50600093019283525090919050565b60006102136103d48386610395565b8461039556fe60a060405234801561001057600080fd5b5060405161095038038061095083398101604081905261002f91610114565b6000805b82518110156100d8576000838281518110610050576100506101d8565b6020026020010151905060016000826001600160a01b03166001600160a01b03168152602001908152602001600020546000036100cf576000610092846101ee565b6001600160a01b03831660008181526001602090815260408083208590558483526002909152902080546001600160a01b03191690911790559350505b50600101610033565b5060805250610215565b634e487b7160e01b600052604160045260246000fd5b80516001600160a01b038116811461010f57600080fd5b919050565b6000602080838503121561012757600080fd5b82516001600160401b038082111561013e57600080fd5b818501915085601f83011261015257600080fd5b815181811115610164576101646100e2565b8060051b604051601f19603f83011681018181108582111715610189576101896100e2565b6040529182528482019250838101850191888311156101a757600080fd5b938501935b828510156101cc576101bd856100f8565b845293850193928501926101ac565b98975050505050505050565b634e487b7160e01b600052603260045260246000fd5b60006001820161020e57634e487b7160e01b600052601160045260246000fd5b5060010190565b60805161071961023760003960008181610101015261029401526107196000f3fe608060405234801561001057600080fd5b506004361061007d5760003560e01c80637d094dd61161005b5780637d094dd614610125578063866b85fa14610138578063c1f59afc1461014d578063ddccf48c1461016057600080fd5b80630a6f1fe8146100825780631c45396a146100be5780631e526e45146100ff575b600080fd5b6100ab61009036600461050a565b6001600160a01b031660009081526001602052604090205490565b6040519081526020015b60405180910390f35b6100e76100cc36600461052c565b6000908152600260205260409020546001600160a01b031690565b6040516001600160a01b0390911681526020016100b5565b7f00000000000000000000000000000000000000000000000000000000000000006100ab565b6100ab61013336600461055d565b610183565b61014b61014636600461055d565b610199565b005b6100ab61015b36600461059a565b6102f0565b61017361016e3660046105ce565b610365565b60405190151581526020016100b5565b6000610190848484610388565b54949350505050565b33600090815260016020526040902054806101fa5760405162461bcd60e51b815260206004820152601f60248201527f51756f72756d3a2063616c6c6572206973206e6f742076616c696461746f7200604482015260640160405180910390fd5b836001600160a01b0316336001600160a01b03167f940326476a755934b6ae9d2b36ffcf1f447c3a8223f6d9f8a796b54fbfcce582858560405161023f929190610629565b60405180910390a36000610254858585610388565b90506102636001820183610410565b6102e957600882901c600090815260018281016020526040909120805460ff85169290921b90911790556102b860027f000000000000000000000000000000000000000000000000000000000000000061067a565b6102c390600161069c565b81600001600081546102d4906106af565b9182905550036102e9576102e9858585610435565b5050505050565b6001600160a01b0382166000908152602081815260408220908290610317908501856106c8565b67ffffffffffffffff168152602001908152602001600020600083602001602081019061034491906106c8565b67ffffffffffffffff16815260200190815260200160002054905092915050565b600061037f82610376878787610388565b60010190610410565b95945050505050565b6001600160a01b038316600090815260036020908152604082209082906103b1908601866106c8565b67ffffffffffffffff16815260200190815260200160002060008460200160208101906103de91906106c8565b67ffffffffffffffff168152602001908152602001600020600083815260200190815260200160002090509392505050565b600881901c600090815260208390526040902054600160ff83161b1615155b92915050565b6001600160a01b03831660009081526020818152604082208392909161045d908601866106c8565b67ffffffffffffffff168152602001908152602001600020600084602001602081019061048a91906106c8565b67ffffffffffffffff16815260200190815260200160002081905550826001600160a01b03167f4e068a6b8ed35e6ee03244135874f91ccebb5cd1f3a258a6dc2ad0ebd298847683836040516104e1929190610629565b60405180910390a2505050565b80356001600160a01b038116811461050557600080fd5b919050565b60006020828403121561051c57600080fd5b610525826104ee565b9392505050565b60006020828403121561053e57600080fd5b5035919050565b60006040828403121561055757600080fd5b50919050565b60008060006080848603121561057257600080fd5b61057b846104ee565b925061058a8560208601610545565b9150606084013590509250925092565b600080606083850312156105ad57600080fd5b6105b6836104ee565b91506105c58460208501610545565b90509250929050565b60008060008060a085870312156105e457600080fd5b6105ed856104ee565b93506105fc8660208701610545565b93969395505050506060820135916080013590565b803567ffffffffffffffff8116811461050557600080fd5b6060810167ffffffffffffffff8061064086610611565b1683528061065060208701610611565b166020840152508260408301529392505050565b634e487b7160e01b600052601160045260246000fd5b60008261069757634e487b7160e01b600052601260045260246000fd5b500490565b8082018082111561042f5761042f610664565b6000600182016106c1576106c1610664565b5060010190565b6000602082840312156106da57600080fd5b6105258261061156fea2646970667358221220157a6bffa7eaa9ca48d7a15a2149a3dbf5c9ab1640312cf2a2a555f1a84f020064736f6c63430008170033a26469706673582212201302a4a7cea7b4d5365e7b315030c118e7bdcc628cf4e01f3e46fd11f52d43b264736f6c63430008170033",
  "devdoc": {
    "events": {
      "QuorumCreated(address)": {
        "details": "MUST be triggered on a successful call to `newQuorum`.",
        "params": {
          "quorum": "The quorum"
        }
      }
    },
    "kind": "dev",
    "methods": {
      "calculateQuorumAddress(address[],bytes32)": {
        "details": "Beware that only the `newQuorum` function with the `salt` parameter      is able to deterministically deploy a quorum.",
        "params": {
          "salt": "The salt used to deterministically generate the quorum address",
          "validators": "the list of validators"
        },
        "returns": {
          "_0": "The deterministic quorum address"
        }
      },
      "newQuorum(address[])": {
        "details": "On success, MUST emit a `QuorumCreated` event.",
        "params": {
          "validators": "the list of validators"
        },
        "returns": {
          "_0": "The quorum"
        }
      },
      "newQuorum(address[],bytes32)": {
        "details": "On success, MUST emit a `QuorumCreated` event.",
        "params": {
          "salt": "The salt used to deterministically generate the quorum address",
          "validators": "the list of validators"
        },
        "returns": {
          "_0": "The quorum"
        }
      }
    },
    "title": "Quorum Factory",
    "version": 1
  },
  "userdoc": {
    "events": {
      "QuorumCreated(address)": {
        "notice": "A new quorum was deployed."
      }
    },
    "kind": "user",
    "methods": {
      "calculateQuorumAddress(address[],bytes32)": {
        "notice": "Calculate the address of a quorum to be deployed deterministically."
      },
      "newQuorum(address[])": {
        "notice": "Deploy a new quorum."
      },
      "newQuorum(address[],bytes32)": {
        "notice": "Deploy a new quorum deterministically."
      }
    },
    "notice": "Allows anyone to reliably deploy a new `Quorum` contract.",
    "version": 1
  },
  "storageLayout": {
    "storage": [],
    "types": null
  }
}