{
  "address": "0x22AFD9162079c7Ac0aF874054298Bf46F29157F1",
  "abi": [
    {
      "anonymous": false,
      "inputs": [
        {
          "indexed": false,
          "internalType": "contract IQuorum",
          "name": "quorum",
          "type": "address"
        }
      ],
      "name": "QuorumCreated",
      "type": "event"
    },
    {
      "inputs": [
        {
          "internalType": "address[]",
          "name": "validators",
          "type": "address[]"
        },
        {
          "internalType": "uint256",
          "name": "epochLength",
          "type": "uint256"
        },
        {
          "internalType": "bytes32",
          "name": "salt",
          "type": "bytes32"
        }
      ],
      "name": "calculateQuorumAddress",
      "outputs": [
        {
          "internalType": "address",
          "name": "",
          "type": "address"
        }
      ],
      "stateMutability": "view",
      "type": "function"
    },
    {
      "inputs": [
        {
          "internalType": "address[]",
          "name": "validators",
          "type": "address[]"
        },
        {
          "internalType": "uint256",
          "name": "epochLength",
          "type": "uint256"
        },
        {
          "internalType": "bytes32",
          "name": "salt",
          "type": "bytes32"
        }
      ],
      "name": "newQuorum",
      "outputs": [
        {
          "internalType": "contract IQuorum",
          "name": "",
          "type": "address"
        }
      ],
      "stateMutability": "nonpayable",
      "type": "function"
    },
    {
      "inputs": [
        {
          "internalType": "address[]",
          "name": "validators",
          "type": "address[]"
        },
        {
          "internalType": "uint256",
          "name": "epochLength",
          "type": "uint256"
        }
      ],
      "name": "newQuorum",
      "outputs": [
        {
          "internalType": "contract IQuorum",
          "name": "",
          "type": "address"
        }
      ],
      "stateMutability": "nonpayable",
      "type": "function"
    }
  ],
  "args": [],
  "numDeployments": 1,
  "solcInputHash": "3f90f7284d022e9cc827655f4d93f4f9",
  "bytecode": "0x608060405234801561001057600080fd5b50610c90806100206000396000f3fe608060405234801561001057600080fd5b50600436106100415760003560e01c80632f74f86214610046578063ca8f271c14610075578063d4af3bc814610088575b600080fd5b6100596100543660046102bb565b61009b565b6040516001600160a01b03909116815260200160405180910390f35b6100596100833660046102bb565b610123565b61005961009636600461030c565b6101a2565b600080828686866040516100ae90610262565b6100ba93929190610358565b8190604051809103906000f59050801580156100da573d6000803e3d6000fd5b506040516001600160a01b03821681529091507f446698b70271bce331e53210572bd37ac8c590b6cdca2e6763e6448243cba8029060200160405180910390a195945050505050565b6000610199826040518060200161013990610262565b601f1982820381018352601f90910116604081905261016090899089908990602001610358565b60408051601f198184030181529082905261017e92916020016103e4565b60405160208183030381529060405280519060200120610224565b95945050505050565b6000808484846040516101b490610262565b6101c093929190610358565b604051809103906000f0801580156101dc573d6000803e3d6000fd5b506040516001600160a01b03821681529091507f446698b70271bce331e53210572bd37ac8c590b6cdca2e6763e6448243cba8029060200160405180910390a1949350505050565b6000610231838330610238565b9392505050565b6000604051836040820152846020820152828152600b8101905060ff815360559020949350505050565b6108598061040283390190565b60008083601f84011261028157600080fd5b50813567ffffffffffffffff81111561029957600080fd5b6020830191508360208260051b85010111156102b457600080fd5b9250929050565b600080600080606085870312156102d157600080fd5b843567ffffffffffffffff8111156102e857600080fd5b6102f48782880161026f565b90989097506020870135966040013595509350505050565b60008060006040848603121561032157600080fd5b833567ffffffffffffffff81111561033857600080fd5b6103448682870161026f565b909790965060209590950135949350505050565b604080825281018390526000846060830182805b878110156103a05783356001600160a01b03811680821461038b578384fd5b8452506020938401939092019160010161036c565b505060209390930193909352509392505050565b6000815160005b818110156103d557602081850181015186830152016103bb565b50600093019283525090919050565b60006103f96103f383866103b4565b846103b4565b94935050505056fe60c060405234801561001057600080fd5b5060405161085938038061085983398101604081905261002f9161016e565b80600081116100845760405162461bcd60e51b815260206004820152601d60248201527f65706f6368206c656e677468206d757374206e6f74206265207a65726f000000604482015260640160405180910390fd5b6080526000805b83518110156101305760008482815181106100a8576100a861023a565b6020026020010151905060016000826001600160a01b03166001600160a01b03168152602001908152602001600020546000036101275760006100ea84610250565b6001600160a01b03831660008181526001602090815260408083208590558483526002909152902080546001600160a01b03191690911790559350505b5060010161008b565b5060a052506102779050565b634e487b7160e01b600052604160045260246000fd5b80516001600160a01b038116811461016957600080fd5b919050565b6000806040838503121561018157600080fd5b82516001600160401b038082111561019857600080fd5b818501915085601f8301126101ac57600080fd5b81516020828211156101c0576101c061013c565b8160051b604051601f19603f830116810181811086821117156101e5576101e561013c565b60405292835281830193508481018201928984111561020357600080fd5b948201945b838610156102285761021986610152565b85529482019493820193610208565b97909101519698969750505050505050565b634e487b7160e01b600052603260045260246000fd5b60006001820161027057634e487b7160e01b600052601160045260246000fd5b5060010190565b60805160a0516105b66102a36000396000818161010c01526102f70152600061019001526105b66000f3fe608060405234801561001057600080fd5b50600436106100885760003560e01c80636470af001161005b5780636470af00146101535780637051bfd5146101685780639618f35b1461017b578063cfe8a73b1461018e57600080fd5b80630a6f1fe81461008d5780631c45396a146100c95780631e526e451461010a5780634b84231c14610130575b600080fd5b6100b661009b36600461044b565b6001600160a01b031660009081526001602052604090205490565b6040519081526020015b60405180910390f35b6100f26100d736600461046d565b6000908152600260205260409020546001600160a01b031690565b6040516001600160a01b0390911681526020016100c0565b7f00000000000000000000000000000000000000000000000000000000000000006100b6565b61014361013e366004610486565b6101b4565b60405190151581526020016100c0565b6101666101613660046104bf565b6101f1565b005b6100b66101763660046104bf565b610353565b6101436101893660046104f2565b610369565b7f00000000000000000000000000000000000000000000000000000000000000006100b6565b60006101e8826101c5878787610395565b600882901c60009081526001918201602052604090205460ff9092161b16151590565b95945050505050565b33600090815260016020526040902054806102525760405162461bcd60e51b815260206004820152601f60248201527f51756f72756d3a2063616c6c6572206973206e6f742076616c696461746f7200604482015260640160405180910390fd5b60408051848152602081018490526001600160a01b0386169133917ff5a28e07a1b89d1ca3f9a2a7ef16bd650503a4791baf2e70dc401c21ee505f0a910160405180910390a360006102a5858585610395565b600883901c6000908152600180830160205260409091205491925060ff84161b1661034c57600882901c600090815260018281016020526040909120805460ff85169290921b909117905561031b60027f0000000000000000000000000000000000000000000000000000000000000000610532565b610326906001610554565b816000016000815461033790610567565b91829055500361034c5761034c8585856103c7565b5050505050565b6000610360848484610395565b54949350505050565b6001600160a01b03821660009081526020818152604080832084845290915290205460ff165b92915050565b6001600160a01b0383166000908152600360209081526040808320858452825280832084845290915290209392505050565b6001600160a01b038316600081815260208181526040808320858452825291829020805460ff1916600117905581518581529081018490527fd3e4892959c6ddb27e02bcaaebc0c1898d0f677b7360bf80339f10a8717957d3910160405180910390a2505050565b80356001600160a01b038116811461044657600080fd5b919050565b60006020828403121561045d57600080fd5b6104668261042f565b9392505050565b60006020828403121561047f57600080fd5b5035919050565b6000806000806080858703121561049c57600080fd5b6104a58561042f565b966020860135965060408601359560600135945092505050565b6000806000606084860312156104d457600080fd5b6104dd8461042f565b95602085013595506040909401359392505050565b6000806040838503121561050557600080fd5b61050e8361042f565b946020939093013593505050565b634e487b7160e01b600052601160045260246000fd5b60008261054f57634e487b7160e01b600052601260045260246000fd5b500490565b8082018082111561038f5761038f61051c565b6000600182016105795761057961051c565b506001019056fea2646970667358221220642bb94e1d4dd60f0c8a41a3a000c90390997995461f65183db6e55f56e5032864736f6c63430008170033a264697066735822122056fc82af8dbf74e096ba755e657baedd2a8684ccc11e63a53a44d8ceb691249e64736f6c63430008170033",
  "devdoc": {
    "events": {
      "QuorumCreated(address)": {
        "details": "MUST be triggered on a successful call to `newQuorum`.",
        "params": {
          "quorum": "The quorum"
        }
      }
    },
    "kind": "dev",
    "methods": {
      "calculateQuorumAddress(address[],uint256,bytes32)": {
        "details": "Beware that only the `newQuorum` function with the `salt` parameter      is able to deterministically deploy a quorum.",
        "params": {
          "epochLength": "The epoch length",
          "salt": "The salt used to deterministically generate the quorum address",
          "validators": "the list of validators"
        },
        "returns": {
          "_0": "The deterministic quorum address"
        }
      },
      "newQuorum(address[],uint256)": {
        "details": "On success, MUST emit a `QuorumCreated` event.Duplicates in the `validators` array are ignored.Reverts if the epoch length is zero.",
        "params": {
          "epochLength": "The epoch length",
          "validators": "the list of validators"
        },
        "returns": {
          "_0": "The quorum"
        }
      },
      "newQuorum(address[],uint256,bytes32)": {
        "details": "On success, MUST emit a `QuorumCreated` event.Duplicates in the `validators` array are ignored.Reverts if the epoch length is zero.",
        "params": {
          "epochLength": "The epoch length",
          "salt": "The salt used to deterministically generate the quorum address",
          "validators": "the list of validators"
        },
        "returns": {
          "_0": "The quorum"
        }
      }
    },
    "title": "Quorum Factory",
    "version": 1
  },
  "userdoc": {
    "events": {
      "QuorumCreated(address)": {
        "notice": "A new quorum was deployed."
      }
    },
    "kind": "user",
    "methods": {
      "calculateQuorumAddress(address[],uint256,bytes32)": {
        "notice": "Calculate the address of a quorum to be deployed deterministically."
      },
      "newQuorum(address[],uint256)": {
        "notice": "Deploy a new quorum."
      },
      "newQuorum(address[],uint256,bytes32)": {
        "notice": "Deploy a new quorum deterministically."
      }
    },
    "notice": "Allows anyone to reliably deploy a new `IQuorum` contract.",
    "version": 1
  },
  "storageLayout": {
    "storage": [],
    "types": null
  }
}