{
  "address": "0x1fD0E73b5739eDBdf978e3ad2063F86cF78056aF",
  "abi": [
    {
      "inputs": [
        {
          "internalType": "contract IAuthorityFactory",
          "name": "authorityFactory",
          "type": "address"
        },
        {
          "internalType": "contract IApplicationFactory",
          "name": "applicationFactory",
          "type": "address"
        }
      ],
      "stateMutability": "nonpayable",
      "type": "constructor"
    },
    {
      "inputs": [
        {
          "internalType": "address",
          "name": "authorityOwner",
          "type": "address"
        },
        {
          "internalType": "contract IInputBox",
          "name": "inputBox",
          "type": "address"
        },
        {
          "internalType": "contract IPortal[]",
          "name": "portals",
          "type": "address[]"
        },
        {
          "internalType": "address",
          "name": "appOwner",
          "type": "address"
        },
        {
          "internalType": "bytes32",
          "name": "templateHash",
          "type": "bytes32"
        },
        {
          "internalType": "bytes32",
          "name": "salt",
          "type": "bytes32"
        }
      ],
      "name": "calculateAddresses",
      "outputs": [
        {
          "internalType": "address",
          "name": "application",
          "type": "address"
        },
        {
          "internalType": "address",
          "name": "authority",
          "type": "address"
        }
      ],
      "stateMutability": "view",
      "type": "function"
    },
    {
      "inputs": [
        {
          "internalType": "address",
          "name": "authorityOwner",
          "type": "address"
        },
        {
          "internalType": "contract IInputBox",
          "name": "inputBox",
          "type": "address"
        },
        {
          "internalType": "contract IPortal[]",
          "name": "portals",
          "type": "address[]"
        },
        {
          "internalType": "address",
          "name": "appOwner",
          "type": "address"
        },
        {
          "internalType": "bytes32",
          "name": "templateHash",
          "type": "bytes32"
        },
        {
          "internalType": "bytes32",
          "name": "salt",
          "type": "bytes32"
        }
      ],
      "name": "deployContracts",
      "outputs": [
        {
          "internalType": "contract Application",
          "name": "application",
          "type": "address"
        },
        {
          "internalType": "contract Authority",
          "name": "authority",
          "type": "address"
        }
      ],
      "stateMutability": "nonpayable",
      "type": "function"
    },
    {
      "inputs": [],
      "name": "getApplicationFactory",
      "outputs": [
        {
          "internalType": "contract IApplicationFactory",
          "name": "",
          "type": "address"
        }
      ],
      "stateMutability": "view",
      "type": "function"
    },
    {
      "inputs": [],
      "name": "getAuthorityFactory",
      "outputs": [
        {
          "internalType": "contract IAuthorityFactory",
          "name": "",
          "type": "address"
        }
      ],
      "stateMutability": "view",
      "type": "function"
    }
  ],
  "transactionHash": "0x806741d143e9db10024f2287c61a71184faf1bb5dfd181c6b7e4343bdceed7cb",
  "args": [
    "0xFc6c1Fc6546898eb2f9cb7De360B3eA52E601D46",
    "0x159876e08d642c2Fe9a52804756189E1DbF497F0"
  ],
  "numDeployments": 1,
  "solcInputHash": "d5e580c56a1973c1da5089d8c687e7bd",
  "bytecode": "0x60c060405234801561001057600080fd5b5060405161065138038061065183398101604081905261002f9161005e565b6001600160a01b039182166080521660a052610098565b6001600160a01b038116811461005b57600080fd5b50565b6000806040838503121561007157600080fd5b825161007c81610046565b602084015190925061008d81610046565b809150509250929050565b60805160a05161057a6100d76000396000818160c5015281816101ae01526102eb0152600081816053015281816101270152610267015261057a6000f3fe608060405234801561001057600080fd5b506004361061004c5760003560e01c806375689f8314610051578063c03db64f14610090578063e63d50ff146100c3578063ea60bcb9146100e9575b600080fd5b7f00000000000000000000000000000000000000000000000000000000000000005b6040516001600160a01b0390911681526020015b60405180910390f35b6100a361009e366004610385565b6100fc565b604080516001600160a01b03938416815292909116602083015201610087565b7f0000000000000000000000000000000000000000000000000000000000000000610073565b6100a36100f7366004610385565b61023d565b604051635a3f27d360e01b81526001600160a01b0387811660048301526024820183905260009182917f00000000000000000000000000000000000000000000000000000000000000001690635a3f27d3906044016020604051808303816000875af1158015610170573d6000803e3d6000fd5b505050506040513d601f19601f820116820180604052508101906101949190610494565b6040516303557d6760e01b81529091506001600160a01b037f000000000000000000000000000000000000000000000000000000000000000016906303557d67906101ed9084908b908b908b908b908b906004016104fd565b6020604051808303816000875af115801561020c573d6000803e3d6000fd5b505050506040513d601f19601f820116820180604052508101906102309190610494565b9150965096945050505050565b604051622715e160e21b81526001600160a01b0387811660048301526024820183905260009182917f00000000000000000000000000000000000000000000000000000000000000001690629c578490604401602060405180830381865afa1580156102ad573d6000803e3d6000fd5b505050506040513d601f19601f820116820180604052508101906102d19190610494565b60405163f63adead60e01b81529091506001600160a01b037f0000000000000000000000000000000000000000000000000000000000000000169063f63adead9061032a9084908b908b908b908b908b906004016104fd565b602060405180830381865afa15801561020c573d6000803e3d6000fd5b6001600160a01b038116811461035c57600080fd5b50565b803561036a81610347565b919050565b634e487b7160e01b600052604160045260246000fd5b60008060008060008060c0878903121561039e57600080fd5b86356103a981610347565b95506020878101356103ba81610347565b9550604088013567ffffffffffffffff808211156103d757600080fd5b818a0191508a601f8301126103eb57600080fd5b8135818111156103fd576103fd61036f565b8060051b604051601f19603f830116810181811085821117156104225761042261036f565b60405291825284820192508381018501918d83111561044057600080fd5b938501935b82851015610465576104568561035f565b84529385019392850192610445565b80995050505050505061047a6060880161035f565b92506080870135915060a087013590509295509295509295565b6000602082840312156104a657600080fd5b81516104b181610347565b9392505050565b60008151808452602080850194506020840160005b838110156104f25781516001600160a01b0316875295820195908201906001016104cd565b509495945050505050565b600060018060a01b038089168352808816602084015260c0604084015261052760c08401886104b8565b9516606083015250608081019290925260a090910152939250505056fea2646970667358221220e42a7dc01ef56a32cca5105f756721819ca0448d27d0e1cf6b071de6f3bfa42e64736f6c63430008170033",
  "devdoc": {
    "kind": "dev",
    "methods": {
      "calculateAddresses(address,address,address[],address,bytes32,bytes32)": {
        "params": {
          "appOwner": "The initial Application owner",
          "authorityOwner": "The initial authority owner",
          "inputBox": "The input box contract",
          "portals": "The portals supported by the application",
          "salt": "The salt used to deterministically generate the addresses",
          "templateHash": "The initial machine state hash"
        },
        "returns": {
          "application": "The application address",
          "authority": "The authority address"
        }
      },
      "constructor": {
        "params": {
          "applicationFactory": "The application factory",
          "authorityFactory": "The authority factory"
        }
      },
      "deployContracts(address,address,address[],address,bytes32,bytes32)": {
        "params": {
          "appOwner": "The initial Application owner",
          "authorityOwner": "The initial authority owner",
          "inputBox": "The input box contract",
          "portals": "The portals supported by the application",
          "salt": "The salt used to deterministically generate the addresses",
          "templateHash": "The initial machine state hash"
        },
        "returns": {
          "application": "The application contract",
          "authority": "The authority contract"
        }
      },
      "getApplicationFactory()": {
        "returns": {
          "_0": "The application factory"
        }
      },
      "getAuthorityFactory()": {
        "returns": {
          "_0": "The authority factory"
        }
      }
    },
    "title": "Self-hosted Application Factory",
    "version": 1
  },
  "userdoc": {
    "kind": "user",
    "methods": {
      "calculateAddresses(address,address,address[],address,bytes32,bytes32)": {
        "notice": "Calculate the addresses of the application and authority contracts to be deployed deterministically."
      },
      "deployContracts(address,address,address[],address,bytes32,bytes32)": {
        "notice": "Deploy new application and authority contracts deterministically."
      },
      "getApplicationFactory()": {
        "notice": "Get the factory used to deploy `Application` contracts"
      },
      "getAuthorityFactory()": {
        "notice": "Get the factory used to deploy `Authority` contracts"
      }
    },
    "notice": "Allows anyone to reliably deploy a new Authority contract, along with an Application contract already linked to it.",
    "version": 1
  },
  "storageLayout": {
    "storage": [],
    "types": null
  }
}