{
  "address": "0x1d4CfBD2622d802A07CeB4C3401Bbb455c9dbdC3",
  "abi": [
    {
      "anonymous": false,
      "inputs": [
        {
          "indexed": true,
          "internalType": "contract IConsensus",
          "name": "consensus",
          "type": "address"
        },
        {
          "indexed": false,
          "internalType": "address",
          "name": "appOwner",
          "type": "address"
        },
        {
          "indexed": false,
          "internalType": "bytes32",
          "name": "templateHash",
          "type": "bytes32"
        },
        {
          "indexed": false,
          "internalType": "contract IApplication",
          "name": "appContract",
          "type": "address"
        }
      ],
      "name": "ApplicationCreated",
      "type": "event"
    },
    {
      "inputs": [
        {
          "internalType": "contract IConsensus",
          "name": "consensus",
          "type": "address"
        },
        {
          "internalType": "address",
          "name": "appOwner",
          "type": "address"
        },
        {
          "internalType": "bytes32",
          "name": "templateHash",
          "type": "bytes32"
        },
        {
          "internalType": "bytes32",
          "name": "salt",
          "type": "bytes32"
        }
      ],
      "name": "calculateApplicationAddress",
      "outputs": [
        {
          "internalType": "address",
          "name": "",
          "type": "address"
        }
      ],
      "stateMutability": "view",
      "type": "function"
    },
    {
      "inputs": [
        {
          "internalType": "contract IConsensus",
          "name": "consensus",
          "type": "address"
        },
        {
          "internalType": "address",
          "name": "appOwner",
          "type": "address"
        },
        {
          "internalType": "bytes32",
          "name": "templateHash",
          "type": "bytes32"
        },
        {
          "internalType": "bytes32",
          "name": "salt",
          "type": "bytes32"
        }
      ],
      "name": "newApplication",
      "outputs": [
        {
          "internalType": "contract IApplication",
          "name": "",
          "type": "address"
        }
      ],
      "stateMutability": "nonpayable",
      "type": "function"
    },
    {
      "inputs": [
        {
          "internalType": "contract IConsensus",
          "name": "consensus",
          "type": "address"
        },
        {
          "internalType": "address",
          "name": "appOwner",
          "type": "address"
        },
        {
          "internalType": "bytes32",
          "name": "templateHash",
          "type": "bytes32"
        }
      ],
      "name": "newApplication",
      "outputs": [
        {
          "internalType": "contract IApplication",
          "name": "",
          "type": "address"
        }
      ],
      "stateMutability": "nonpayable",
      "type": "function"
    }
  ],
  "transactionHash": "0x6d931724a9051a350b832dc1272786b646fd96c1317a0e534fa801b06b13340e",
  "args": [],
  "numDeployments": 1,
  "solcInputHash": "3f90f7284d022e9cc827655f4d93f4f9",
  "bytecode": "0x608060405234801561001057600080fd5b5061160a806100206000396000f3fe608060405234801561001057600080fd5b50600436106100415760003560e01c80630e1a07f5146100465780633648bfb514610075578063bd4f121914610088575b600080fd5b6100596100543660046102df565b61009b565b6040516001600160a01b03909116815260200160405180910390f35b610059610083366004610325565b610148565b6100596100963660046102df565b6101ef565b600080828686866040516100ae906102ba565b6001600160a01b03938416815292909116602083015260408201526060018190604051809103906000f59050801580156100ec573d6000803e3d6000fd5b50604080516001600160a01b03888116825260208201889052838116828401529151929350908816917fe73165c2d277daf8713fd08b40845cb6bb7a20b2b543f3d35324a475660fcebd9181900360600190a295945050505050565b60008084848460405161015a906102ba565b6001600160a01b0393841681529290911660208301526040820152606001604051809103906000f080158015610194573d6000803e3d6000fd5b50604080516001600160a01b03878116825260208201879052838116828401529151929350908716917fe73165c2d277daf8713fd08b40845cb6bb7a20b2b543f3d35324a475660fcebd9181900360600190a2949350505050565b60006102738260405180602001610205906102ba565b601f1982820381018352601f9091011660408181526001600160a01b038a811660208401528916908201526060810187905260800160408051601f19818403018152908290526102589291602001610396565b6040516020818303038152906040528051906020012061027c565b95945050505050565b6000610289838330610290565b9392505050565b6000604051836040820152846020820152828152600b8101905060ff815360559020949350505050565b611221806103b483390190565b6001600160a01b03811681146102dc57600080fd5b50565b600080600080608085870312156102f557600080fd5b8435610300816102c7565b93506020850135610310816102c7565b93969395505050506040820135916060013590565b60008060006060848603121561033a57600080fd5b8335610345816102c7565b92506020840135610355816102c7565b929592945050506040919091013590565b6000815160005b81811015610387576020818501810151868301520161036d565b50600093019283525090919050565b60006103ab6103a58386610366565b84610366565b94935050505056fe60a060405234801561001057600080fd5b5060405161122138038061122183398101604081905261002f916100fd565b816001600160a01b03811661005e57604051631e4fbdf760e01b81526000600482015260240160405180910390fd5b61006781610095565b506001805560805250600380546001600160a01b0319166001600160a01b0392909216919091179055610140565b600080546001600160a01b038381166001600160a01b0319831681178455604051919092169283917f8be0079c531659141344cd1fd0a4f28419497f9722a3daafe3b4186f6b6457e09190a35050565b6001600160a01b03811681146100fa57600080fd5b50565b60008060006060848603121561011257600080fd5b835161011d816100e5565b602085015190935061012e816100e5565b80925050604084015190509250925092565b6080516110c661015b60003960006101ec01526110c66000f3fe6080604052600436106100e15760003560e01c806371891db01161007f578063e88d39c011610059578063e88d39c014610294578063f23a6e61146102b4578063f2fde38b146102e0578063fc4116831461030057600080fd5b806371891db01461022a5780638da5cb5b1461024a578063bc197c811461026857600080fd5b8063179e740b116100bb578063179e740b1461018857806333137b76146101ba57806361b12c66146101da578063715018a61461021557600080fd5b806301ffc9a7146100ed57806308eb89ab14610122578063150b7a021461014457600080fd5b366100e857005b600080fd5b3480156100f957600080fd5b5061010d610108366004610a28565b610320565b60405190151581526020015b60405180910390f35b34801561012e57600080fd5b5061014261013d366004610a6a565b610357565b005b34801561015057600080fd5b5061016f61015f366004610b7a565b630a85bd0160e11b949350505050565b6040516001600160e01b03199091168152602001610119565b34801561019457600080fd5b506003546001600160a01b03165b6040516001600160a01b039091168152602001610119565b3480156101c657600080fd5b506101426101d5366004610be5565b6103be565b3480156101e657600080fd5b506040517f00000000000000000000000000000000000000000000000000000000000000008152602001610119565b34801561022157600080fd5b5061014261059b565b34801561023657600080fd5b5061010d610245366004610c78565b6105a5565b34801561025657600080fd5b506000546001600160a01b03166101a2565b34801561027457600080fd5b5061016f610283366004610d10565b63bc197c8160e01b95945050505050565b3480156102a057600080fd5b506101426102af366004610be5565b6105c8565b3480156102c057600080fd5b5061016f6102cf366004610dbd565b63f23a6e6160e01b95945050505050565b3480156102ec57600080fd5b506101426102fb366004610e25565b6105e9565b34801561030c57600080fd5b5061014261031b366004610e25565b6105f5565b60006001600160e01b03198216630271189760e51b148061035157506301ffc9a760e01b6001600160e01b03198316145b92915050565b61036081610651565b61037d57604051635d2c5e9b60e11b815260040160405180910390fd5b6000610389828461066c565b9050610394816106a5565b6103b95760405163506b919d60e11b8152600481018290526024015b60405180910390fd5b505050565b6103c6610719565b6103d18383836105c8565b60006103e06020830183610e42565b90506004831015610408578383604051636942600f60e11b81526004016103b0929190610e94565b60006104176004828688610eb0565b61042091610eda565b9050366000610432866004818a610eb0565b909250905063dc857e9160e01b6001600160e01b03198416016104a55766ffffffffffffff600885901c16600090815260026020526040902054600160ff86161b1615610496578686604051637b97a6bb60e01b81526004016103b0929190610e94565b6104a08282610743565b61052b565b63efcde17560e01b6001600160e01b031984160161050e5766ffffffffffffff600885901c16600090815260026020526040902054600160ff86161b1615610504578686604051637b97a6bb60e01b81526004016103b0929190610e94565b6104a08282610776565b8686604051636942600f60e11b81526004016103b0929190610e94565b66ffffffffffffff600885901c1660009081526002602052604090208054600160ff87161b1790557fcad1f361c6e84664e892230291c8e8eb9555683e0a6a5ce8ea7b204ac0ac367684888860405161058693929190610f0a565b60405180910390a1505050506103b960018055565b6105a36107a4565b565b600881901c600090815260026020526040812054600160ff84161b161515610351565b6103b983836040516105db929190610f36565b604051809103902082610357565b6105f2816107b6565b50565b6105fd6107f1565b600380546001600160a01b0319166001600160a01b0383169081179091556040519081527f4991c6f37185659e276ff918a96f3e20e6c5abcd8c9aab450dc19c2f7ad35cb59060200160405180910390a150565b6000603f6106626020840184610f46565b9050149050919050565b600061069e61067e6020850185610e42565b6001600160401b0316836106956020870187610f46565b9092909161081e565b9392505050565b600354604051639618f35b60e01b8152306004820152602481018390526000916001600160a01b031690639618f35b90604401602060405180830381865afa1580156106f5573d6000803e3d6000fd5b505050506040513d601f19601f820116820180604052508101906103519190610f96565b60026001540361073c57604051633ee5aeb560e01b815260040160405180910390fd5b6002600155565b600080606061075484860186610fb8565b9194509250905061076f6001600160a01b03841683836108df565b5050505050565b6000606061078683850185611006565b909250905061079e6001600160a01b03831682610952565b50505050565b6107ac6107f1565b6105a360006109c2565b6107be6107f1565b6001600160a01b0381166107e857604051631e4fbdf760e01b8152600060048201526024016103b0565b6105f2816109c2565b6000546001600160a01b031633146105a35760405163118cdaa760e01b81523360048201526024016103b0565b600083815b8181101561088657600087878381811061083f5761083f61104b565b905060200201359050856001166000036108685760008581526020829052604090209450610879565b600081815260208690526040902094505b50600194851c9401610823565b5083156108d55760405162461bcd60e51b815260206004820181905260248201527f4c69624d65726b6c6533323a20696e646578206f7574206f6620626f756e647360448201526064016103b0565b5090949350505050565b60006060846001600160a01b031684846040516108fc9190611061565b60006040518083038185875af1925050503d8060008114610939576040519150601f19603f3d011682016040523d82523d6000602084013e61093e565b606091505b5090925090508161076f5761076f81610a12565b60006060836001600160a01b03168360405161096e9190611061565b600060405180830381855af49150503d80600081146109a9576040519150601f19603f3d011682016040523d82523d6000602084013e6109ae565b606091505b5090925090508161079e5761079e81610a12565b600080546001600160a01b038381166001600160a01b0319831681178455604051919092169283917f8be0079c531659141344cd1fd0a4f28419497f9722a3daafe3b4186f6b6457e09190a35050565b8051600003610a2057600080fd5b805181602001fd5b600060208284031215610a3a57600080fd5b81356001600160e01b03198116811461069e57600080fd5b600060408284031215610a6457600080fd5b50919050565b60008060408385031215610a7d57600080fd5b8235915060208301356001600160401b03811115610a9a57600080fd5b610aa685828601610a52565b9150509250929050565b6001600160a01b03811681146105f257600080fd5b634e487b7160e01b600052604160045260246000fd5b604051601f8201601f191681016001600160401b0381118282101715610b0357610b03610ac5565b604052919050565b600082601f830112610b1c57600080fd5b81356001600160401b03811115610b3557610b35610ac5565b610b48601f8201601f1916602001610adb565b818152846020838601011115610b5d57600080fd5b816020850160208301376000918101602001919091529392505050565b60008060008060808587031215610b9057600080fd5b8435610b9b81610ab0565b93506020850135610bab81610ab0565b92506040850135915060608501356001600160401b03811115610bcd57600080fd5b610bd987828801610b0b565b91505092959194509250565b600080600060408486031215610bfa57600080fd5b83356001600160401b0380821115610c1157600080fd5b818601915086601f830112610c2557600080fd5b813581811115610c3457600080fd5b876020828501011115610c4657600080fd5b602092830195509350908501359080821115610c6157600080fd5b50610c6e86828701610a52565b9150509250925092565b600060208284031215610c8a57600080fd5b5035919050565b600082601f830112610ca257600080fd5b813560206001600160401b03821115610cbd57610cbd610ac5565b8160051b610ccc828201610adb565b9283528481018201928281019087851115610ce657600080fd5b83870192505b84831015610d0557823582529183019190830190610cec565b979650505050505050565b600080600080600060a08688031215610d2857600080fd5b8535610d3381610ab0565b94506020860135610d4381610ab0565b935060408601356001600160401b0380821115610d5f57600080fd5b610d6b89838a01610c91565b94506060880135915080821115610d8157600080fd5b610d8d89838a01610c91565b93506080880135915080821115610da357600080fd5b50610db088828901610b0b565b9150509295509295909350565b600080600080600060a08688031215610dd557600080fd5b8535610de081610ab0565b94506020860135610df081610ab0565b9350604086013592506060860135915060808601356001600160401b03811115610e1957600080fd5b610db088828901610b0b565b600060208284031215610e3757600080fd5b813561069e81610ab0565b600060208284031215610e5457600080fd5b81356001600160401b038116811461069e57600080fd5b81835281816020850137506000828201602090810191909152601f909101601f19169091010190565b602081526000610ea8602083018486610e6b565b949350505050565b60008085851115610ec057600080fd5b83861115610ecd57600080fd5b5050820193919092039150565b6001600160e01b03198135818116916004851015610f025780818660040360031b1b83161692505b505092915050565b6001600160401b0384168152604060208201526000610f2d604083018486610e6b565b95945050505050565b8183823760009101908152919050565b6000808335601e19843603018112610f5d57600080fd5b8301803591506001600160401b03821115610f7757600080fd5b6020019150600581901b3603821315610f8f57600080fd5b9250929050565b600060208284031215610fa857600080fd5b8151801515811461069e57600080fd5b600080600060608486031215610fcd57600080fd5b8335610fd881610ab0565b92506020840135915060408401356001600160401b03811115610ffa57600080fd5b610c6e86828701610b0b565b6000806040838503121561101957600080fd5b823561102481610ab0565b915060208301356001600160401b0381111561103f57600080fd5b610aa685828601610b0b565b634e487b7160e01b600052603260045260246000fd5b6000825160005b818110156110825760208186018101518583015201611068565b50600092019182525091905056fea26469706673582212203f315ffa1b40cea7dff22d84a4da91a7608e3e91ce7edcfdf33bec1516bcd4a264736f6c63430008170033a26469706673582212208c4a52f54de2f4ddae6d92bbdbe5a6efa1298a6912df6cab98cca337ff99a72264736f6c63430008170033",
  "devdoc": {
    "events": {
      "ApplicationCreated(address,address,bytes32,address)": {
        "details": "MUST be triggered on a successful call to `newApplication`.",
        "params": {
          "appContract": "The application contract",
          "appOwner": "The initial application owner",
          "consensus": "The initial consensus contract",
          "templateHash": "The initial machine state hash"
        }
      }
    },
    "kind": "dev",
    "methods": {
      "calculateApplicationAddress(address,address,bytes32,bytes32)": {
        "details": "Beware that only the `newApplication` function with the `salt` parameter      is able to deterministically deploy an application.",
        "params": {
          "appOwner": "The initial application owner",
          "consensus": "The initial consensus contract",
          "salt": "The salt used to deterministically generate the application contract address",
          "templateHash": "The initial machine state hash"
        },
        "returns": {
          "_0": "The deterministic application contract address"
        }
      },
      "newApplication(address,address,bytes32)": {
        "details": "On success, MUST emit an `ApplicationCreated` event.Reverts if the application owner address is zero.",
        "params": {
          "appOwner": "The initial application owner",
          "consensus": "The initial consensus contract",
          "templateHash": "The initial machine state hash"
        },
        "returns": {
          "_0": "The application"
        }
      },
      "newApplication(address,address,bytes32,bytes32)": {
        "details": "On success, MUST emit an `ApplicationCreated` event.Reverts if the application owner address is zero.",
        "params": {
          "appOwner": "The initial application owner",
          "consensus": "The initial consensus contract",
          "salt": "The salt used to deterministically generate the application contract address",
          "templateHash": "The initial machine state hash"
        },
        "returns": {
          "_0": "The application"
        }
      }
    },
    "title": "Application Factory",
    "version": 1
  },
  "userdoc": {
    "events": {
      "ApplicationCreated(address,address,bytes32,address)": {
        "notice": "A new application was deployed."
      }
    },
    "kind": "user",
    "methods": {
      "calculateApplicationAddress(address,address,bytes32,bytes32)": {
        "notice": "Calculate the address of an application contract to be deployed deterministically."
      },
      "newApplication(address,address,bytes32)": {
        "notice": "Deploy a new application."
      },
      "newApplication(address,address,bytes32,bytes32)": {
        "notice": "Deploy a new application deterministically."
      }
    },
    "notice": "Allows anyone to reliably deploy a new `IApplication` contract.",
    "version": 1
  },
  "storageLayout": {
    "storage": [],
    "types": null
  }
}