{
  "address": "0x593E5BCf894D6829Dd26D0810DA7F064406aebB6",
  "abi": [
    {
      "inputs": [
        {
          "internalType": "address",
          "name": "appContract",
          "type": "address"
        },
        {
          "internalType": "uint256",
          "name": "inputLength",
          "type": "uint256"
        },
        {
          "internalType": "uint256",
          "name": "maxInputLength",
          "type": "uint256"
        }
      ],
      "name": "InputTooLarge",
      "type": "error"
    },
    {
      "anonymous": false,
      "inputs": [
        {
          "indexed": true,
          "internalType": "address",
          "name": "appContract",
          "type": "address"
        },
        {
          "indexed": true,
          "internalType": "uint256",
          "name": "index",
          "type": "uint256"
        },
        {
          "indexed": false,
          "internalType": "bytes",
          "name": "input",
          "type": "bytes"
        }
      ],
      "name": "InputAdded",
      "type": "event"
    },
    {
      "inputs": [
        {
          "internalType": "address",
          "name": "appContract",
          "type": "address"
        },
        {
          "internalType": "bytes",
          "name": "payload",
          "type": "bytes"
        }
      ],
      "name": "addInput",
      "outputs": [
        {
          "internalType": "bytes32",
          "name": "",
          "type": "bytes32"
        }
      ],
      "stateMutability": "nonpayable",
      "type": "function"
    },
    {
      "inputs": [
        {
          "internalType": "address",
          "name": "appContract",
          "type": "address"
        },
        {
          "internalType": "uint256",
          "name": "index",
          "type": "uint256"
        }
      ],
      "name": "getInputHash",
      "outputs": [
        {
          "internalType": "bytes32",
          "name": "",
          "type": "bytes32"
        }
      ],
      "stateMutability": "view",
      "type": "function"
    },
    {
      "inputs": [
        {
          "internalType": "address",
          "name": "appContract",
          "type": "address"
        }
      ],
      "name": "getNumberOfInputs",
      "outputs": [
        {
          "internalType": "uint256",
          "name": "",
          "type": "uint256"
        }
      ],
      "stateMutability": "view",
      "type": "function"
    }
  ],
  "transactionHash": "0xab70c6dec889cedff4bd62ba5dd563e4b8ff5180d5cadd184de18c1a9d3ca559",
  "args": [],
  "numDeployments": 1,
  "solcInputHash": "3f90f7284d022e9cc827655f4d93f4f9",
  "bytecode": "0x608060405234801561001057600080fd5b50610404806100206000396000f3fe608060405234801561001057600080fd5b50600436106100415760003560e01c80631789cd631461004657806361a93c871461006b578063677087c914610094575b600080fd5b610059610054366004610226565b6100a7565b60405190815260200160405180910390f35b6100596100793660046102a9565b6001600160a01b031660009081526020819052604090205490565b6100596100a23660046102cb565b6101cd565b6001600160a01b0383166000908152602081905260408082208054915190919083906100e79046908990339043904290449089908e908e906024016102f5565b60408051601f198184030181529190526020810180516001600160e01b031663415bf36360e01b179052805190915062200000101561015b5780516040516304f90dc560e51b81526001600160a01b0389166004820152602481019190915262200000604482015260640160405180910390fd5b8051602080830191909120845460018101865560008681529290922090910181905560405183906001600160a01b038a16907fc05d337121a6e8605c6ec0b72aa29c4210ffe6e5b9cefdd6a7058188a8f66f98906101ba908690610369565b60405180910390a3979650505050505050565b6001600160a01b03821660009081526020819052604081208054839081106101f7576101f76103b8565b9060005260206000200154905092915050565b80356001600160a01b038116811461022157600080fd5b919050565b60008060006040848603121561023b57600080fd5b6102448461020a565b9250602084013567ffffffffffffffff8082111561026157600080fd5b818601915086601f83011261027557600080fd5b81358181111561028457600080fd5b87602082850101111561029657600080fd5b6020830194508093505050509250925092565b6000602082840312156102bb57600080fd5b6102c48261020a565b9392505050565b600080604083850312156102de57600080fd5b6102e78361020a565b946020939093013593505050565b8981526001600160a01b03898116602083015288166040820152606081018790526080810186905260a0810185905260c0810184905261010060e08201819052810182905260006101208385828501376000838501820152601f909301601f19169091019091019998505050505050505050565b60006020808352835180602085015260005b818110156103975785810183015185820160400152820161037b565b506000604082860101526040601f19601f8301168501019250505092915050565b634e487b7160e01b600052603260045260246000fdfea26469706673582212203788fdfb8b6a2c0572bcd866dab8de747866dc2030920f38cce6fb32a7b57abc64736f6c63430008170033",
  "devdoc": {
    "errors": {
      "InputTooLarge(address,uint256,uint256)": [
        {
          "params": {
            "appContract": "The application contract address",
            "inputLength": "The input length",
            "maxInputLength": "The maximum input length"
          }
        }
      ]
    },
    "events": {
      "InputAdded(address,uint256,bytes)": {
        "params": {
          "appContract": "The application contract address",
          "index": "The input index",
          "input": "The input blob"
        }
      }
    },
    "kind": "dev",
    "methods": {
      "addInput(address,bytes)": {
        "details": "MUST fire an `InputAdded` event.",
        "params": {
          "appContract": "The application contract address",
          "payload": "The input payload"
        },
        "returns": {
          "_0": "The hash of the input blob"
        }
      },
      "getInputHash(address,uint256)": {
        "details": "The provided index must be valid.",
        "params": {
          "appContract": "The application contract address",
          "index": "The input index"
        }
      },
      "getNumberOfInputs(address)": {
        "params": {
          "appContract": "The application contract address"
        }
      }
    },
    "version": 1
  },
  "userdoc": {
    "errors": {
      "InputTooLarge(address,uint256,uint256)": [
        {
          "notice": "Input is too large."
        }
      ]
    },
    "events": {
      "InputAdded(address,uint256,bytes)": {
        "notice": "MUST trigger when an input is added."
      }
    },
    "kind": "user",
    "methods": {
      "addInput(address,bytes)": {
        "notice": "Send an input to an application."
      },
      "getInputHash(address,uint256)": {
        "notice": "Get the hash of an input in an application's input box."
      },
      "getNumberOfInputs(address)": {
        "notice": "Get the number of inputs sent to an application."
      }
    },
    "version": 1
  },
  "storageLayout": {
    "storage": [
      {
        "astId": 3773,
        "contract": "contracts/inputs/InputBox.sol:InputBox",
        "label": "_inputBoxes",
        "offset": 0,
        "slot": "0",
        "type": "t_mapping(t_address,t_array(t_bytes32)dyn_storage)"
      }
    ],
    "types": {
      "t_address": {
        "encoding": "inplace",
        "label": "address",
        "numberOfBytes": "20"
      },
      "t_array(t_bytes32)dyn_storage": {
        "base": "t_bytes32",
        "encoding": "dynamic_array",
        "label": "bytes32[]",
        "numberOfBytes": "32"
      },
      "t_bytes32": {
        "encoding": "inplace",
        "label": "bytes32",
        "numberOfBytes": "32"
      },
      "t_mapping(t_address,t_array(t_bytes32)dyn_storage)": {
        "encoding": "mapping",
        "key": "t_address",
        "label": "mapping(address => bytes32[])",
        "numberOfBytes": "32",
        "value": "t_array(t_bytes32)dyn_storage"
      }
    }
  }
}